:020000040800F2
:1000000020070020A1010008A1270008551F0008B3
:100010009D270008CD0A0008B52700080000000051
:10002000000000000000000000000000A9270008F8
:10003000D10A000800000000A5270008AD2700082D
:10004000BB010008BB010008BB010008BB010008A0
:10005000BB010008BB010008BB010008BB01000890
:10006000BB010008BB010008BB010008BB01000880
:10007000BB010008BB010008BB010008BB01000870
:10008000BB010008BB010008BB010008BB01000860
:10009000BB010008BB010008BB010008BB01000850
:1000A000BB010008BB010008BB010008BB01000840
:1000B000BB010008BB010008BB010008BB01000830
:1000C000BB010008BB010008BB010008BB01000820
:1000D000BB010008BB010008BB010008BB01000810
:1000E000BB010008BB010008BB01000800F002F8DA
:1000F00000F047F80AA090E8000C82448344AAF17B
:100100000107DA4501D100F03CF8AFF2090EBAE878
:100110000F0013F0010F18BFFB1A43F0010318473B
:10012000284A0000484A0000103A24BF78C878C125
:10013000FAD8520724BF30C830C144BF04680C60ED
:10014000704700000023002400250026103A28BF35
:1001500078C1FBD8520728BF30C148BF0B60704739
:10016000662904F0C883002070471FB500F034FBF7
:1001700004000020002103F0C5FBE0601FBD10B5A6
:1001800010BD00F02DFC1146FFF7EFFF02F07EFCE2
:1001900000F04BFC03B4FFF7F2FF03BC00F08EFC51
:1001A0000948804709480047FEE7FEE7FEE7FEE70B
:1001B000FEE7FEE7FEE7FEE7FEE7FEE70448054947
:1001C000054A064B70470000B1270008ED00000803
:1001D0002001002020070020200300202003002011
:1001E0000FB41CB5074B06AA7B44694600900598DE
:1001F00000F0D9FA0020694600F0E8FA1CBC5DF86E
:1002000014FB0000E10500002DE9F0474FF0000A63
:1002100089460446C0F820A02046E16888470028A7
:1002200076D0252806D0D4E901219047206A401CC9
:100230002062F1E7E168204600258847C4F81CA049
:1002400006460027C4F818A02A2E09D0304603F02D
:100250001BFA38B304EB8708303EC8F8186019E081
:1002600059F8041B204604EB87029161E168884736
:10027000012F064618D1E069002820DA25F0200574
:100280001DE0D8F8180000EB800006EB4000303885
:10029000C8F818002046E1688847064603F0F4F9DC
:1002A0000028EED1012F0AD02E2E08D12046E16879
:1002B00088477F1C0646022F45F02005C4DBA06955
:1002C000002803DA404245F00105A061E80701D0AB
:1002D00025F01005B6B1A6F14100192802D8203644
:1002E00045F400654A463146204625604D46FFF7F5
:1002F00037FF58B1012806D0ED1D25F0070000F1A9
:10030000080989E704E005F1040985E730468AE732
:10031000206ABDE8F0874FF0000200B5134694460E
:100320009646203922BFA0E80C50A0E80C50B1F14D
:100330002001BFF4F7AF090728BFA0E80C5048BF61
:100340000CC05DF804EB890028BF40F8042B08BFFF
:10035000704748BF20F8022B11F0804F18BF00F8FB
:10036000012B704770477047704710B500F038FA9E
:10037000006810BD10B5044600F032FA046010BDEC
:100380002DE9FF4F0C461E464FF0FF378BB0D2E9E8
:100390000001DDF860800A908A46C1F30A5505B96C
:1003A0003D46002108464FF00000BAF1000F00F46E
:1003B000400005DA00EB80004FF4400101EA5000F4
:1003C0004FEA9059B9F1010F00DDB9460A9850EA99
:1003D0004A000ED044F61050A5F2FF3545432F14C5
:1003E000B8F1000F1ED07542291E1EDDC9F10002B2
:1003F0001CE0B8F1010F4FF0000001D0302103E004
:10040000F24305E02154401CB042FBDB30460022A1
:10041000002121540B99C1F80880C1E900200FB0D8
:10042000BDE8F08FBD1B6D1CDEE74A4600DA69426D
:1004300006A800F05FFA06AB93E8070003AB83E879
:10044000070050460A9902F0E2FC8DE80700A0F58B
:1004500000501F3800900398002D0ADD42F21F0162
:100460004A460844002303A90390684602F04CFF63
:1004700009E0A0F500504A461F38002303A9039065
:10048000684602F056FF8DE807000004000C03D018
:100490004FF0FF30410800E01046B8F1000F03D0E4
:1004A0000022009215461EE0751E05D400F09CF94E
:1004B000303262556D1EF9D5B3460122084302D091
:1004C00000227F1C04E02078302801D100227F1E0A
:1004D000002A099784D01DE0112D07DA00F084F975
:1004E000303262556D1C50EA0102F5D1084302D04A
:1004F0000098C8B10EE00021681E05E0235C625C34
:1005000063542254401E491C8142F7DBAB46A81BB2
:10051000401E0990002004F80B000B98099AC0F8BF
:100520000880C0E9002B7AE711264FF0000857E752
:100530002DE9F04F88460446D21D22F0070191B004
:10054000D1E90001CDE90A0103F02AF802460B982F
:10055000C00F01D02D2007E02068810701D52B2096
:1005600002E0202101EAC000032A099001D0072AF5
:1005700005DB03464146204600F07CF90BE120787C
:10058000800601D5E06900E00620B8F1650F8146DC
:1005900006D0B8F1660F18D0B8F1670F70D131E00E
:1005A0000020B9F1110F009001DB112301E009F1E6
:1005B00001030AAA01A90CA8FFF7E2FEDDE90C700D
:1005C000002609F10105834647E001204B460090D3
:1005D0004FF000470AAA01A90CA8FFF7D1FEDDE9F8
:1005E0000DB00C995D46002610B909F101000D18F7
:1005F000B9EB050003D4C0F1FF3609F10105A5EB05
:1006000009002BE0B9F1010F01DA4FF001090020D8
:10061000B9F1110F0090484601DD112300E00346B7
:100620000AAA01A90CA8FFF7ABFEDDE90C704D4644
:1006300000268346207800070AD4AB4500DA5D46E1
:1006400001A8012D04DD411911F8011C302907D042
:100650004F4502DA17F1040F04DA012082460FE059
:100660006D1EEEE7002F02DCED1B3E4403E0781C1C
:10067000A84200DD7D1CB81B00F1010A4FF00047C5
:100680002078000703D4AA4501DB4FF0FF3A002190
:10069000B7F1004F0DF143088DF8431024D002202C
:1006A0002B23002F01DA7F422D230A21021EA0F105
:1006B000010000DC5FB197FBF1FC97FBF1F201FB5D
:1006C0001C7C17460CF1300C08F801CDEEE7A8F1C0
:1006D000010003702188090501D5452100E065214D
:1006E000A0F1010800F8011C09980FA9A1EB080767
:1006F000FF1D00B10120411901EBEA70A1693844E6
:10070000081A401EA0612078C00602D42046AFF32C
:100710000080099828B1D4E901219047206A401C43
:1007200020622078C00622D52046AFF300801EE06C
:10073000002E04DBB34502DD01A8805D00E030201F
:10074000D4E901219047206A401C2062761CAAF15E
:1007500001005FEA000A0AD100F03EF8C0680168B3
:10076000405CD4E901219047206A401C2062281E89
:10077000A5F10105DCDC07E0D4E9012118F8010B43
:100780009047206A401C2062381EA7F10107F3DC65
:100790002046AFF30080032011B041E601694A1CF6
:1007A00002610878704700B58FB0CDE901310021B2
:1007B000059105497944CDE9031011466846FFF7D4
:1007C00023FD0FB000BD0000E5FFFFFF0A6802F83F
:1007D000010B0A6070470000004870473800002095
:1007E000004870471800002030B5B0F10A0271F1DE
:1007F00000034FEA900E4EEA817EB0EB0E0061EBF3
:1008000091014FEA101E4EEA017E10EB0E0041EB03
:1008100011114FEA102E4EEA016E10EB0E0041EB63
:1008200011214FEA104E4EEA014E10EB0E0041EB43
:100830001141401841F100014FEAD00040EA4170F7
:100840004FEAD1014FEA810444EA907410EB80052D
:1008500044EB01046D1944EB0404521BA3414FF017
:10086000000348BF0A3200D530BD401C41F10001F1
:1008700030BD00002DE9F0411F4604460326016803
:10088000072A01F4006004DB08B116A505E016A5EF
:1008900003E008B115A500E015A521F010002060C7
:1008A000A069C01EA0610FB1401EA0612046AFF339
:1008B00000804FB1D4E9012138469047206A401C9E
:1008C0002062C01C206206E0206AFAE7D4E9012118
:1008D00015F8010B9047761EF8D22046AFF3008042
:1008E000BDE8F0814E414E006E616E00494E4600FB
:1008F000696E66002DE9F047814616468AB0354894
:1009000078440DC88DE80D0032487844801C03AC53
:100910000DC884E80D0041F69B300844372190FB58
:10092000F1F290FBF1F5A5F1800501FB12041B3CEF
:1009300002D56442012000E00020DFF898A0804644
:100940000027FA44AAF1BE0A0EE0E0070AD03246B8
:10095000684607EB470101230AEB810102F0E9FC3D
:100960008DE8070064107F1C002CEED1194F7F44E6
:10097000AE3F19E0E80715D007EB04100DF1180A97
:1009800090E80E008AE80E00C068F04201D1981984
:1009900008903246012306A903A802F0CAFC03AB63
:1009A00083E807006D10641C002DE3D14FF00103B4
:1009B00032466946B8F1000F03A802D002F0A4FC49
:1009C00001E002F0B6FCC9E90001C9F808200AB04C
:1009D000BDE8F08700420000004870471800002082
:1009E0007546FFF7F9FFAE4605006946534620F00D
:1009F0000700854618B020B5FFF7E0FBBDE82040B2
:100A00004FF000064FF000074FF000084FF0000BCA
:100A1000AC46ACE8C009ACE8C009ACE8C009ACE839
:100A2000C00921F007018D46704710B50446AFF3A9
:100A300000802046BDE81040FFF7ACBB4FF0013C02
:100A400050F8042B51F8043B9A4221D1A2EB0C033D
:100A5000934313EACC1317D150F8042B51F8043BFD
:100A60009A4215D1A2EB0C03934313EACC130BD19A
:100A700050F8042B51F8043B9A4209D1A2EB0C0325
:100A8000934313EACC13DBD04FF00000704700BF54
:100A9000D01A01BAB1FA81F101F0180122FA01F07D
:100AA000CB40DBB2C0B2C01AC1F120012CFA01F375
:100AB000D11A914311EAC311E6D1704701491820B8
:100AC000ABBEFEE72600020070470000FEE7000014
:100AD00070470000B0B5044600F01AF9054640F230
:100AE0000800C2F200000078611C18BF044400BF77
:100AF00000F00EF9401BA042FAD3B0BD2DE9F04F33
:100B000082B041F20042C4F201020E680423904216
:100B100008BF0323002E009300F0F68040F20C4E35
:100B20004FF6FF7CC4F2010E00220124C1F2100C2A
:100B30004FF0000A4FF0000943E000BF012502F02A
:100B40000C040F27A7402BEA070705FA04F43C43DF
:100B500043F82640D1F804B040F20045C4F2010544
:100B60005FEACB332B6854BF23EA080343EA080348
:100B70002B606B685FEA8B3454BF23EA080343EAB7
:100B800008036B605FEACB24AB6854BF23EA080319
:100B900043EA08035FEA8B24AB60DEF800304FF0D5
:100BA000010454BF23EA080343EA0803CEF80030E7
:100BB0000E680AF1010A36FA0AF302F1040200F0A3
:100BC000A38004FA0AF816EA080FF1D04B686345CF
:100BD00012DC122B56D8DFE803F0350B454955558A
:100BE00055555555555555555555554D510000BF01
:100BF000D1F80C9046E000BF4FF6FF77C1F2210715
:100C0000BB420FDC0027C1F21107BB421AD00027FC
:100C1000C1F21207BB4215D00027C1F22107BB4227
:100C200010D02FE00027C1F22207BB420AD00027D4
:100C3000C1F23107BB4205D00027C1F23207BB42E7
:100C400020D100BF8B684BB1012B14BFC0F81480BA
:100C5000C0F810804FF0080914E000BF4FF00409FD
:100C600010E000BFCB6803F108090BE04FF000096A
:100C700008E000BFCB6803F1040903E0CB6803F18F
:100C80000C0900BF13460546BAF1080F24BF203BEC
:100C900004352E680F279F40BE4309FA03F3334300
:100CA0002B60CB79DB067FF583AF41F21804C4F2E9
:100CB000020423684FEA9A0643F001032360236885
:100CC00040F6000403F001030193019B40F200434E
:100CD000C4F20103A3F57E7353F826B0C4F20104F5
:100CE000A0420FD040F60044C4F20104A0423FF4F9
:100CF00025AF41F20004C4F20104009DA04208BFE8
:100D000002251CE700251AE702B0BDE8F08F0000BD
:100D100040F21C10C2F200000068704770B5B8B312
:100D2000044690F83D0028B9002084F83C00204695
:100D300000F0BAFB242084F83D002068016821F00F
:100D400001010160016841F400410160016821F482
:100D50000041016000F062FD48F28041C0F21E01D6
:100D600040F60013D4F804E088424FF00001C0F2CE
:100D70003D0348F2A16C4FF0000238BF01219842B8
:100D8000C0F2010C38BF0122E64538BF0A460AB15D
:100D9000012070BD4DF68361C4F21B31A0FB01122E
:100DA0002168950C4B684FF4967623F03F0343EA95
:100DB0009243754344F6D3564B60C1F262060B6A08
:100DC000A5FB0656B50923F03F03E64538BF950C51
:100DD0006A1C1A430A62CA6948F2A0664CF6FF739D
:100DE000C0F20106B64522EA03020BD801384FEAE9
:100DF0004E03B0FBF3F001306FF31F30042898BFAF
:100E000004201EE0A368013863B119230EFB03F32D
:100E1000B0FBF3F001306FF31F3078B100F5804084
:100E200008E000BF0EEB4E03B0FBF3F001306FF3B0
:100E30001F3028B100F5004003E000BF012000E0B2
:100E400001201043C8610868D4E9072320F0C000DE
:100E5000104318430860886848F2FF3204F10C061A
:100E600090434CCE18431043A5698860C86820F0B1
:100E7000FF0030432843C860086840F00100086064
:100E800000202021206484F83D10206384F83E0077
:100E900070BD00002DE9F04F85B0044600201E46CD
:100EA00017460D460490FFF733FF94F83D102029B4
:100EB00023D1804620688169890719D5FFF728FF6B
:100EC000A0EB08001928F5D900202021206384F820
:100ED0003D1084F83E00206C04F13C0940F02000F5
:100EE00020640220002189F8001005B0BDE8F08FD1
:100EF000A14619F83C1F012904D1022005B0BDE824
:100F0000F08F00BF012289F800200368DDE90F1A85
:100F10000E9ADB0703D1036843F001030360036803
:100F200023F400630360222084F83D00402084F80D
:100F30003E000020206462626185608D2946208524
:100F40000020CFF6FF70E06220463A463346CDF8E7
:100F500000A0CDF8048000F0FFFF18B1012005B01B
:100F6000BDE8F08F208D022810D0012824D0002861
:100F700038D1002003902068416903918169039171
:100F80000399016841F40071016037E0206801684D
:100F900041F400610160EFF3108072B6002003900D
:100FA000206841690391816903910399016821F4E3
:100FB0008061016062B621E02068016821F48061EF
:100FC0000160EFF3108072B6002003902068416941
:100FD0000391816903910399016841F400710160F3
:100FE00062B60BE02068016841F480610160002175
:100FF000039141690391806903900398208D002833
:1010000000F0238140F2100B4BF289570AF10105E1
:10101000C2F2000BC1F2F847232680B2032819D888
:10102000022845D001286FD1BAF1000F00F0FA80F4
:101030002068014651F8142F520600F1F780086825
:10104000C00600F12F81FFF763FEA0EB08005045BA
:10105000EED91CE1BAF1000F12D000BF20680146A2
:1010600051F8142F520610D40868C00600F11A81F6
:10107000FFF74EFEA0EB08005045EFD907E100BF97
:1010800020684169490640F1FB800069616A087087
:10109000606A2268411C208D616201382085638D61
:1010A000013B638553695B0740F1CC801069BFE069
:1010B00020684169490711D4002D00F09380BAF1EE
:1010C000000F00F0E280FFF723FEA0EB0800504580
:1010D00000F2DD80206840694007F4D5EFF310800E
:1010E00072B62068616A026842F4007202600069A8
:1010F0000870606A218D01306062481E2085608D15
:101100000138608562B668E020684169490710D4FB
:10111000002D77D0BAF1000F00F0B780FFF7F8FD8F
:10112000A0EB0800504500F2B280206841694907F1
:10113000F4D5016821F480610160EFF3108072B68C
:101140002068616A00690870606A218D0130013988
:1011500060622185618D01396185DBF80010C90865
:10116000A1FB0712110A71430491049901390491FA
:101170000499002976D021684A6952071DD4049940
:1011800001390491049900296CD021684A695207F9
:1011900013D40499013904910499002962D021687B
:1011A0004A69520709D40499013904910499002924
:1011B00058D021684A695207D7D50A6842F40072AC
:1011C0000A6009690170606A218D01306062481E01
:1011D0002085608D0138608562B62068616A00698B
:1011E00026E000BF416949073FF578AF41694907EB
:1011F0005CBF41695FEA41713FF570AF41694907E2
:10120000F0D56BE74169490793D4416949075CBF51
:1012100041695FEA41713FF58CAF41694907F1D5FA
:1012200087E700BF20684169490629D50069616ADE
:101230000870606A218D01306062481E2085618DD2
:101240000139618501047FF4E8AE202084F83D0077
:10125000002084F83E00002189F8001005B0BDE8A8
:10126000F08F00BF00202021206384F83D1084F817
:101270003E00206C40F02000206462B61EE000BFFB
:1012800050F8141FC90601460CD4FFF741FD002099
:101290002021206384F83D1084F83E00206C40F04B
:1012A00020000AE06FF01000086000202021206379
:1012B00084F83D1084F83E00206C20640120002159
:1012C00089F8001005B0BDE8F08F00002DE9F0436B
:1012D00083B0994616460F460446FFF719FD94F869
:1012E0003D1020291CD1054620688169890713D546
:1012F000FFF70EFD401B1928F6D90020202120639E
:1013000084F83D1084F83E00216C41F020012164F6
:1013100084F83C0004E000BF94F83C10012903D19C
:10132000022003B0BDE8F083012284F83C2003686A
:10133000DDE90B180A9ADB0703D1036843F00103C8
:101340000360036823F400630360212084F83D00F8
:10135000402084F83E000020206462626185608D38
:10136000394620850020CFF6FF70E06220463246E5
:101370004B46CDF80080019500F07EFF20B10120A2
:1013800003B0BDE8F08300BF208D002850D0206856
:1013900008F10106014651F8142F12062CD49EB113
:1013A000B8F1000F5AD000BF086840055ED4FFF7BF
:1013B000AFFC401B404556D82068014651F8142F19
:1013C0001206F1D518E000BF0A6852054ED40A682B
:1013D000120611D40A68520548D40A6812060BD4C2
:1013E0000A68520542D40A68120605D40A685205F2
:1013F0003CD40A681206E7D5626A114611F8013B2F
:101400000361238D6162591E2185678D013F6785C8
:1014100047697F070AD50F0408D051780161911CF4
:101420006162991E2185628D013A62850904B1D1FC
:10143000204641462A4601F059F838BB2068016829
:1014400041F400710160202084F83D00002084F800
:101450003E0084F83C0003B0BDE8F0830868400516
:1014600004D4FFF755FC202004E000BF6FF4806037
:101470000860042000212022216384F83D2084F8A4
:101480003E10226C1043206484F83C10206C042829
:101490007FF475AF2068016841F40071016001209C
:1014A00003B0BDE8F083000010B586B0006845F2D7
:1014B0000042C4F2000200219042049102D006B022
:1014C00010BD00BF41F21804C4F20204206802A952
:1014D00040F008002060206800F0080001900198AA
:1014E0004FF440700290122003900320059040F6C4
:1014F0000040C4F20100FFF701FB0420C4F2010028
:10150000016841F0E06141F002010160606840F46F
:1015100000106060606800F400100190019806B04F
:1015200010BD000040F2080040F21C11C2F20000A1
:10153000C2F2000100780A68104408607047000099
:1015400080B542F20000C4F20200016841F01001CF
:101550000160032000F072F80F2000F005F800F0A1
:1015600027F8002080BD000070B540F20806C2F2E6
:10157000000640F210013278C2F200014FF47A7393
:101580000968B3FBF2F20446B1FBF2F1084600F041
:1015900047FB0F2C4FF0010508D838B94FF0FF304A
:1015A00021460022002500F01DF87460284670BD19
:1015B00082B041F21800C4F20200016841F001015A
:1015C0000160016801F0010101910199416841F058
:1015D00080514160406800F080500090009802B057
:1015E0007047000010B54EF60C5CCEF2000CDCF833
:1015F0000030C3F3022E8EF00704042C28BF04240D
:10160000BEF103034FF0FF3E0EFA04F438BF00238F
:10161000A14399400EFA03F39A43114300F00F02DD
:10162000043A624409010C3200F16043B0F1FF3F1B
:10163000C8BF03F56442117010BD00004EF60C5196
:10164000CEF200010A684FF6FF031A4060F30A2247
:1016500042F0806040F0FD70086070472DE9F04373
:1016600081B0002800F0858042F20008C4F2020830
:101670000446D8F800000D4600F0070088420CD25E
:10168000D8F8000020F007002843C8F80000D8F878
:10169000000000F00700A8426BD1206841F2040965
:1016A0008107C4F2020917D5410705D5D9F8001002
:1016B00041F4E061C9F80010010705D5D9F8001020
:1016C00041F46051C9F80010D9F80010A26821F067
:1016D000F0011143C9F80010C00741D1D8F800004B
:1016E00000F00700A8420CD9D8F8000020F007004D
:1016F0002843C8F80000D8F8000000F00700A8420E
:1017000037D12068410707D5D9F80010E26821F4E5
:10171000E0611143C9F80010000708D5D9F80000AE
:10172000216920F4605040EAC100C9F80000D9F8EE
:10173000002002F00C00082841F20020C0F27A00DC
:1017400050D144F63633C2F38341C0F60003595CEE
:10175000D2033BD440F60010C0F23D00484341E0C4
:10176000606802280AD001282AD159F8041C89038C
:1017700008D4012001B0BDE8F08300BF59F8041C73
:101780008901F6D5D9F8001021F003010843C9F802
:101790000000FFF7BDFA064641F28837D9F800008D
:1017A000616800F00C00B0EB810F97D0FFF7B0FA42
:1017B000801BB842F2D9032001B0BDE8F08300BF1E
:1017C00059F8041C8907D4D5DCE700BFD9F80020FC
:1017D00044F61C33C2F34042C0F600039A5C48430F
:1017E000B0FBF2F0D9F8001044F61E32C1F3031139
:1017F000C0F60002515C40F2100220FA01F140F202
:101800000C00C2F200000068C2F200021160FFF793
:10181000ABFE002001B0BDE8F083000040F21000F4
:1018200041F20401C2F20000C4F20201006809683A
:1018300044F62E32C1F30221C0F60002515CC840CA
:101840007047000040F2100041F20401C2F20000B3
:10185000C4F202010068096844F62E32C1F3C221C5
:10186000C0F60002515CC840704700002DE9F0410D
:1018700082B0002868D00446007841F20006C00714
:10188000C4F2020625D0706800F00C0004281BD0BA
:10189000706800F00C00082802D17068C00313D4EF
:1018A0006068002800F06881B0F5A02F00F07C810E
:1018B000B0F5803F00F07C81306820F480303060EB
:1018C000306820F4802076E13068800301D56068BC
:1018D000D0B32078800718D5706810F00C0F07D0AF
:1018E000706800F00C0008286ED17068C0036BD4DB
:1018F0003068800702D52069012825D130686169E8
:1019000020F0F80040EAC1003060207800071FD4C2
:101910002078400732D4E56995B1706800F00C007A
:10192000082840F08F80012D0ED07068216A00F4E5
:1019300080328A4208D1616A00F47010884203D173
:10194000002002B0BDE8F081012002B0BDE8F081C6
:10195000A069002862D00020C4F242200121C0F812
:101960008014FFF7D5F90546706A800700F18C8076
:10197000FFF7CEF9401B0228F6D92AE1F06910F0F2
:10198000805808D1F06940F08050F061F06900F0B3
:1019900080500090009847F20007C4F200073868B2
:1019A000C00529D4386840F480703860FFF7B0F97A
:1019B000054600BF3868C0051ED4FFF7A9F9401BD3
:1019C0006428F7D905E100BF2069002840F2000033
:1019D000C4F2422000F0828001210160FFF798F9F3
:1019E000054600BF306880073FF588AFFFF790F9E4
:1019F000401B0228F6D9ECE0E068002800F0808067
:101A0000052800F09780012800F09880306A20F0C7
:101A100001003062306A20F0040092E00020C4F23D
:101A200042200021C0F88014FFF772F9054600BF7C
:101A3000706A80077FF56CAFFFF76AF9401B0228D8
:101A4000F6D9C6E00027C4F2422700203866FFF727
:101A50005FF9022D05460BD13068800140F1BE8050
:101A6000FFF756F9401B02284FF00300F4D968E74E
:101A7000306880017FF564AFFFF74AF9401B022808
:101A80004FF00300F4D95CE740F21000C2F200000E
:101A9000006844F6D351C1F26201A0FB0101480A7B
:101AA000019000BF00BF0198411E002801913FF442
:101AB0002FAF00BF0198411E002801913FF428AFCD
:101AC00000BF0198411E002801913FF421AF00BFE3
:101AD0000198411E00280191E4D119E7002101601D
:101AE000FFF716F9054600BF306880077FF50DAF98
:101AF000FFF70EF9401B02284FF00300F4D920E74E
:101B0000306A20F001003062306A20F00400306258
:101B1000FFF7FEF8054641F2883700BF306A8007BC
:101B200020D5FFF7F5F8401BB8424FF00300F5D978
:101B300007E700BF306A40F004003062306A40F0CE
:101B400001003062FFF7E4F8054641F2883700BF34
:101B5000306A800706D4FFF7DBF8401BB842F7D99C
:101B600037E000BFB8F1000F7FF4D5AEF06920F088
:101B70008050F061CFE600BF306820F480303060E4
:101B8000306820F480203060FFF7C2F8054600BFBF
:101B9000306880037FF59DAEFFF7BAF8401B6428DC
:101BA0004FF00300F4D9CCE6306840F48020306078
:101BB000306840F480303060FFF7AAF8054600BF77
:101BC000306880033FF585AEFFF7A2F8401B64281C
:101BD000F6D9032002B0BDE8F08100BF206AB0F55D
:101BE000803F05D17168A26821F400311143716012
:101BF0007168626A21F47411104308437060012017
:101C00003866FFF785F80446306880013FF598AEE6
:101C1000FFF77EF8001B02284FF00300F4D990E68E
:101C2000411E0020B0EB116F1CBF012070474EF227
:101C30001002CEF2000251604EF62351CEF20001A6
:101C4000F0230B700721906011607047002804BFDB
:101C50000120704710B5044690F83D0028B90020D7
:101C600084F83C00204600F05FF8242084F83D0012
:101C70002068D4E90212C36823F40053C3600369E7
:101C800023F440531A430261D4E904231143C26888
:101C9000194341F20C639A431143C1604169A2693F
:101CA00021F44071114343F60002C4F20102904254
:101CB000416103D0FFF7B2FD02E000BFFFF7C2FDB4
:101CC0006268192148439100B0FBF1F048F21F51BE
:101CD000C5F2EB11A0FB01235A096FF0630302FB6D
:101CE0000300322303EB0010A0FB0101F02303EA01
:101CF0005113206803EB0212C1F3431111448160B8
:101D0000016921F490410161416921F02A01416199
:101D1000C16841F40051C16000202021206484F892
:101D20003D1084F83E1010BD70B586B040F600043A
:101D3000C4F20104006804F540510026884204966C
:101D400002D006B070BD00BF41F21800C4F202001C
:101D5000016802AD41F480410160016801F48041F5
:101D600001910199016841F0040101600068294670
:101D700000F00400019001984FF4007002900220DE
:101D80000390032005902046FEF7B8FE4FF48060D4
:101D9000CDE90206204629460496FEF7AFFE06B0BE
:101DA00070BD00002DE9F04381B0044690F83D007D
:101DB00020280DD10F4600294FF0010000F092803D
:101DC0001646002A00F08E8094F83C00012803D1CA
:101DD000022001B0BDE8F083012084F83C004FF000
:101DE000000921201D46C4F8409084F83D00FEF70C
:101DF0008FFFA684E684A1688046B1F5805F25D177
:101E0000206900281CBF38464F463E46074684F8E6
:101E10003C90E08C00B3681C20D0002D66D1206877
:101E20000BE000BF36F8021B00276FF35F21416013
:101E3000E18C0139E184E18C81B30168090675D533
:101E4000002FEFD017F8011BF1E700BF002684F840
:101E50003C90E08C0028DED120681FE0206802E082
:101E60000168090609D40168090606D40168090653
:101E70005CBF01685FEA0161F2D51FB117F8011B71
:101E800005E000BF36F8021B00276FF35F214160B9
:101E9000E18C0139E184E18C0029E4D10168490633
:101EA0001CD4002D42D0691C0ED10168490615D4FE
:101EB000016849065CBF01685FEA41610ED40168B0
:101EC0004906F2D50AE000BFFEF722FFA0EB0801A9
:101ED0002068A9422AD800684006F5D5202084F859
:101EE0003D00002001B0BDE8F08300BF206800BFC6
:101EF0000168090608D4FEF70BFFA0EB0801206873
:101F0000A942F5D912E000BF17B117F8011B04E090
:101F100036F8021B00276FF35F214160E18C013925
:101F2000E184E18C0029E3D1B8E700BFC16821F466
:101F3000D071C160416921F001014161202084F824
:101F40003D0084F83E00002084F83C00032001B0EE
:101F5000BDE8F083FEE700002DE9F04383B00446BE
:101F6000006899460368904643F480620260026804
:101F70000B9D42F48072026042690A9ED2070F46AE
:101F80001DD1711C11D0002E00F03681FEF7C0FE6D
:101F9000401BB04200F2328120684169C907F5D088
:101FA0000DE000BF4169C90709D14169C90706D1E0
:101FB0004169C90704BF41695FEAC171F2D007F006
:101FC000FE0707614169890738D44169721C01F431
:101FD000806111D049BB002E00F03A81FEF798FED7
:101FE000401BB04200F2368120684169890725D440
:101FF00041694905F2D518E0B9B9416989071DD48D
:102000004169490511D44169890717D441694905D6
:102010000BD44169890711D44169490505D4416947
:1020200089070BD441694905E7D5016841F400717E
:1020300001606FF48061416104200CE10021029194
:10204000014651F8142F02924A680292029A0A68D5
:10205000120620D4002E00F0AB80721C51D10A6809
:10206000520500F1AD800A68120614D40A685205C0
:1020700000F1A6800A6812060DD40A68520500F124
:102080009F800A68120606D40A68520500F19880FB
:102090000A681206E3D5B9F1010F45D04FEA1821BD
:1020A0000161014651F8142F12063DD4002E00F0B4
:1020B0007F80721C2AD10A68520500F181800A686B
:1020C000120631D40A6852057AD40A6812062BD453
:1020D0000A68520574D40A68120625D40A685205A3
:1020E0006ED40A681206E6D51EE000BFFEF710FEA9
:1020F000401BB04261D82068014651F8142F1206E7
:10210000C9D408684005F1D55AE000BF0868400509
:1021100056D4FEF7FDFD401BB0424ED82068014664
:1021200051F8142F1206F1D55FFA88F101610146CA
:1021300051F8142F12061AD4D6B3721C33D10A6880
:1021400052053DD40A68120611D40A68520537D4E4
:102150000A6812060BD40A68520531D40A681206BE
:1021600005D40A6852052BD40A681206E7D501681F
:10217000002241F48071016020464FF00111334686
:10218000009500F007FA002850D02068006844E06D
:10219000FEF7BEFD401BB0420FD82068014651F843
:1021A000142F1206E3D408684005F1D508E000BFFB
:1021B0000868400504D4FEF7ABFD202004E000BF12
:1021C0006FF480600860042000212022216384F8DD
:1021D0003D2084F83E10226C1043206484F83C10AB
:1021E000206C042843D12068016841F4007101602B
:1021F000012003B0BDE8F083FEF78AFD0020202116
:10220000206384F83D1084F83E00216C41F02001E9
:102210002164216884F83C000868C00544BF4FF47D
:1022200000702064032003B0BDE8F083206847F00D
:10223000010101610221C0F20101204632462B4614
:1022400000F050FA002818BF012003B0BDE8F08369
:10225000FEF75EFD202000212022216384F83D202E
:1022600084F83E10226C1043206484F83C10012056
:1022700003B0BDE8F08300002DE9F04381B00446CF
:10228000006890460268099D42F4807202604269CB
:10229000089E9946D2070F461DD1711C11D0002E01
:1022A00000F0D280FEF734FD401BB04200F2CE8039
:1022B00020684169C907F5D00DE000BF4169C90731
:1022C00009D14169C90706D14169C90704BF4169FC
:1022D0005FEAC171F2D007F0FE010161416989072F
:1022E00038D44169721C01F4806111D049BB002EC1
:1022F00000F0E880FEF70CFD401BB04200F2E480E5
:1023000020684169890725D441694905F2D518E05B
:10231000B9B9416989071DD44169490511D4416999
:10232000890717D4416949050BD44169890711D43C
:102330004169490505D4416989070BD441694905BB
:10234000E7D5016841F4007101606FF4806141617B
:102350000420BAE000210091014651F8142F0092A8
:102360004A680092009A0A6812061ED4002E00F0F5
:102370008580721C4DD10A68520500F187800A6879
:10238000120612D40A68520500F180800A6812060B
:102390000BD40A68520579D40A68120605D40A6873
:1023A000520573D40A681206E5D5B9F1010F43D07E
:1023B0004FEA18210161014651F8142F12063BD44F
:1023C000002E5BD0721C29D10A6852055ED40A68BF
:1023D000120631D40A68520558D40A6812062BD462
:1023E0000A68520552D40A68120625D40A685205B2
:1023F0004CD40A681206E7D51EE000BFFEF788FC41
:10240000401BB0423FD82068014651F8142F1206F5
:10241000CBD408684005F1D538E000BF0868400516
:1024200034D4FEF775FC401BB0422CD8206801461E
:1024300051F8142F1206F1D55FFA88F101610020DE
:1024400001B0BDE8F08300BFFEF762FC0020202150
:10245000206384F83D1084F83E00216C41F0200197
:102460002164216884F83C000868C00544BF4FF42B
:1024700000702064032001B0BDE8F08308684005C7
:1024800004D4FEF745FC202004E000BF6FF4806018
:102490000860042000212022216384F83D2084F874
:1024A0003E10226C1043206484F83C10206C0428F9
:1024B00017D12068016841F400710160012001B06A
:1024C000BDE8F083FEF724FC2020002120222163B8
:1024D00084F83D2084F83E10226C1043206484F878
:1024E0003C10012001B0BDE8F083000070B5036826
:1024F000044653F8140F400737D40E46F1B1701C50
:1025000024D100BF1868400532D4186840072CD485
:10251000186840052CD41868400726D41868400570
:1025200026D41868400720D41868400520D41868BD
:1025300040074FF0000048BF70BDE3E71868400552
:1025400016D4FEF7E5FB202016E000BF154600BFBD
:10255000186840050CD4FEF7DBFB401BB042F2D8F4
:10256000236853F8140F4007F2D5002070BD00BF58
:102570006FF480601860042000212022216384F819
:102580003D2084F83E10226C10432064012084F822
:102590003C1070BD2DE9F04105461446DDF8188069
:1025A00001F47F002A681E46B0F5803F8FB241D10A
:1025B00050693840C01BB0FA80F04009A0427BD17E
:1025C000701C2DD0002E7BD0FEF7A2FBA0EB0800E4
:1025D000B04277D8286840693840C01BB0FA80F014
:1025E0004009A042F0D00020BDE8F0815069384099
:1025F000C01BB0FA80F04009A0425DD1506938405C
:10260000C01BB0FA80F04009A04255D15069384053
:10261000C01BB0FA80F04009A0424FF000005FD12B
:1026200050693840C01BB0FA80F04009A042DDD0AC
:1026300042E000BF90693840C01BB0FA80F040090A
:10264000A04239D1701C1FD0D6B300BFFEF760FB8B
:10265000A0EB0800B04235D8286880693840C01B1C
:10266000B0FA80F04009A042F0D00020BDE8F0812F
:1026700090693840C01BB0FA80F04009A0424FF08A
:10268000000018BFBDE8F08190693840C01BB0FA67
:1026900080F04009A0420FD190693840C01BB0FAC9
:1026A00080F04009A04207D190693840C01BB0FAC1
:1026B00080F04009A042DBD00020BDE8F08100BFDF
:1026C000FEF726FB00202021286385F83D1085F8C1
:1026D0003E00296C41F02001296485F83C0001206E
:1026E000BDE8F081F0B581B0044600681D4643693D
:1026F0008FB203EA0701B94202D1002001B0F0BD58
:1027000041691646013201F480610FD059BB9EB376
:10271000FEF7FEFA401BB04230D8206841693940CC
:10272000B942EAD041694905F2D51CE0D9B94169FD
:102730003940B942E1D04169490514D44169394071
:10274000B942DAD0416949050DD441693940B942ED
:10275000D3D04169490506D441693940B942CCD04A
:1027600041694905E3D5016841F4007101606FF4E6
:1027700080614161042002E0FEF7CAFA20200021B6
:102780002022216384F83D2084F83E10226C1043FF
:10279000206484F83C10012001B0F0BDFEE7000089
:1027A000FEE700007047000070470000FEF7BABE69
:1027B00070470000FEE700002DE9F04F85B083462A
:1027C00040F6B83040F6B834FEF784F940F2C80855
:1027D00046F20009C2F20008C4F2600940F20000AB
:1027E000C2F2000001780DF10E0000900620019069
:1027F0004046432201234FF0FF370297FEF74AFB82
:10280000BDF80E00C0BA01F0CFFA00224B4601F02D
:1028100071F906469BE821040F4601F0BBFD024614
:102820000B463046394601F0B5F801F081F8BDF8A5
:102830001010CBF80000C8BA01F0B6FA00224B46DF
:1028400001F058F9064628460F4601F0A3FD02465E
:102850000B463046394601F09DF801F069F8BDF8A5
:102860001210CBF80400C8BA01F09EFA00224B46C1
:1028700001F040F9054650460E4601F08BFD024638
:102880000B462846314601F085F801F051F8CBF8A7
:1028900008000320FEF71EF9013C9FD148F2000713
:1028A0009BE86100C4F23B57394601F001FECBF8CA
:1028B00000002846394601F0FBFDCBF80400304605
:1028C000394601F0F5FDCBF8080005B0BDE8F08F02
:1028D0002DE9F04F83B00646D0E90040F5689246F6
:1028E000894601F057FD83462046884601F052FD97
:1028F00002460B4601F070FA044628460F4601F0E6
:1029000049FD02460B4601F067FA02460B46204697
:10291000394601F03FF800F0CFFF02460B4658461B
:10292000414601F0E7F800F0B7FE4DF646724AF274
:10293000DC53C7F66162C4F24C0301F04DFA00F0BB
:10294000F7FF0290D6E90004D6F80C8001F022FDD2
:10295000054620460F4601F01DFD02460B4601F0DC
:102960003BFA044640468B4601F014FD02460B46F6
:1029700001F032FA02460B462046594601F00AF8A9
:1029800000F09AFF02460B462846394601F0B2F89D
:1029900000F082FE4AF2DC534DF64672CCF24C0354
:1029A000C7F6616201F018FA00F0C2FF06F10C08E8
:1029B000019098E82101514601F05CFED9E900162A
:1029C000D9F8084001F012FD07462846514601F0AB
:1029D00051FE314601F00AFD06464046514601F0DF
:1029E00049FE214601F002FD0090384601F0D2FC7C
:1029F000044602988A4601F0CDFC41F2804547F634
:102A0000E127C4F2AE75C3F694772A463B4601F03F
:102A1000E3F948F65C7245F6284380468B46CFF2D0
:102A2000C252C3F6EF7320465146924601F0D4F9E4
:102A300042465B4600F0AEFF00F07AFFC9F80000A6
:102A4000304601F0A7FC044601980E4601F0A2FCB6
:102A50002A463B4601F0C0F945F6284305460F4695
:102A6000204631465246C3F6EF7301F0B5F92A46C7
:102A70003B4600F08FFF00F05BFFC9F804000098B0
:102A8000C9F8080003B0BDE8F08F000098B0FEF769
:102A900057FD00250120CDE91355CDE911551290C0
:102AA000102013904FF460100EAC022617902046B1
:102AB000CDE90F550E96CDE91565FEF7D7FE28B185
:102AC000EFF3108072B600BFFEE700BF0F20CDE924
:102AD00005064FF4806005AFCDE9080538460221B0
:102AE0000795FEF7BBFD28B1EFF3108072B600BF6B
:102AF000FEE700BF41F21800C4F20200016845F28F
:102B0000004841F0040101600168C4F2000801F0CE
:102B100004010E910E990168002641F00801016040
:102B2000006848F2A06100F008000E900E9840F294
:102B3000C800C2F20000C0F201014FF48042C0E9B7
:102B40000081C0E90266C0E90426C0E906660662A3
:102B5000FEF7E4F820B1EFF3108072B6FEE700BF95
:102B600040F200054FF0010AC2F20005CDE9004A2B
:102B700040F2C8042978C2F200044FF0FF39204621
:102B80006B2201238DF83860CDF80890FEF79EFB8C
:102B9000297820461B2201238DF81460CDE9007AA4
:102BA000CDF80890FEF792FB29780BA8CDE9000A32
:102BB00020461C2201238DF82C60CDF80890FEF7EA
:102BC00085FB072029788DF8100004A8CDE9000ABC
:102BD000204619220123CDF80890FEF777FB40F23A
:102BE000780008F56441C2F2000040F80C1F4FF471
:102BF000E1310C22C0E90116C0E90366C0E90526EF
:102C0000C661FFF723F828B1EFF3108072B600BF5A
:102C1000FEE700BF40F27800C2F20000FFF7CCFDF3
:102C200005AC40F278012046C2F2000100F050F8F5
:102C30006A6820460BA9FFF74BFE0EAF38462821E5
:102C4000FDF769FB0DF12C0898E8410101F0A2FBAA
:102C5000814630468A4601F09DFB064640468B463B
:102C600001F098FB0C460290384615A14A4653469F
:102C7000CDE9006B0394FDF7B3FA40F27800C2F29D
:102C8000000000F10C042046394628224FF0FF33A3
:102C9000FFF788F840F60D200490204604A903228F
:102CA0004FF0FF33FFF77EF868680021C4F27A41E5
:102CB00001F0E0FC01F0BEFCFDF70CFFB0E700BF47
:102CC000252E326620252E326620252E3266000003
:102CD0002DE9F04F85B040F2000AC2F2000A40F23E
:102CE000C80688469AF80010C2F2000604464FF063
:102CF000FF394FF0060B0DF10E0530463B22012344
:102D0000CDE9005BCDF80890FEF7C4F8BDF80E00E1
:102D1000C0BA01F049F80027C3F6107700223B46FD
:102D200001F05AF800F004FEBDF810102060C8BA97
:102D300001F03AF800223B4601F04EF800F0F8FDB1
:102D4000BDF812106060C8BA01F02EF800223B46B0
:102D500001F042F800F0ECFD9AF80010A060304657
:102D600043220123CDE9005BCDF80890FEF792F8ED
:102D7000BDF80E00C0BA01F017F846F20006C4F222
:102D800060060022334600F0B5FE0746D8F8000082
:102D90000D4601F0FFFA02460B463846294601F07F
:102DA0000BFA00F0C5FDBDF81010E060C8BA00F0E5
:102DB000FBFF0022334600F09DFE0546D8F80400D4
:102DC0000F4601F0E7FA02460B462846394601F065
:102DD000F3F900F0ADFDBDF812102061C8BA00F0A3
:102DE000E3FF0022334600F085FE0546D8F80800D0
:102DF0000E4601F0CFFA02460B462846314601F056
:102E0000DBF900F095FD606105B0BDE8F08F5FEA89
:102E1000400C08BF91F0000F4FEA8C234FEAC1220B
:102E200043EA51514FEA1C5018BF00F5F0404FEAF9
:102E3000300018BF41F000415FEA6C5C00F029806F
:102E4000BCF1FF3F08BF40F080407047130C06BF45
:102E500012044FF0100C4FF0000C130E04BF1202BE
:102E60000CF1080C130F04BF12010CF1040C930FAA
:102E700004BF92000CF1020CD30F04BF52000CF1FE
:102E8000010C11464FF00002A0F11F00A0EB0C0056
:102E9000704711F0004F08BF704731F000413FF418
:102EA000D5AF0B0C06BF09044FF0100C4FF0000C0F
:102EB0000B0E04BF09020CF1080C0B0F04BF090133
:102EC0000CF1040C8B0F04BF89000CF1020CCB0F2A
:102ED00004BF49000CF1010CCCF1200322FA03F3EA
:102EE00041EA030102FA0CF2A0EB0C0000F1010030
:102EF0007047000023F07F4720F07F4C80EA0300FA
:102F000000F00040ACEB070303F57C5303F1FF0333
:102F10002DE9804909B44FEA144324EA03484FEAF3
:102F2000154B25EA0B4E0FF2042606EB13273E78CD
:102F300003FB0667C7F5000707FB06F64FEAD64610
:102F400006F102064FEA543707FB066CCCF1005C31
:102F50004FEA1C472CEA074C0CFB06F507FB06F46E
:102F600004EB15464FEA961649085FEA320234BF71
:102F700000204FF000404FEAD13706FB07FC4FEA34
:102F80001C4C0CFB0BF7D21B03FB0CF761EB07018E
:102F90000CFB0EF7B0EB074072EB17420CFB08F787
:102FA00034BFA2EB0742B2EB074261EB17414FEA95
:102FB0000C444FEA910706FB07FC4FEA1C4C0CFB44
:102FC0000BF7B0EBC74072EB573203FB0CF734BF83
:102FD000A2EBC742B2EBC74261EB57310CFB0EF7D5
:102FE000B0EBC70072EB57720CFB08F734BFA2EBD3
:102FF000C702B2EBC70261EB57714FEA816141EA48
:1030000092114FEA826242EA90124FEA806004EB2A
:10301000CC04039F4FEAD13706FB07FC4FEA1C4C58
:103020000CFB0BF7D21B03FB0CF761EB07010CFB4E
:103030000EF7B0EB074072EB17420CFB08F734BFFA
:10304000A2EB0742B2EB074261EB17414FEA8C5506
:1030500004EB9C244FEA910706FB07FC4FEA1C4C4B
:103060000CFB0BF7B0EBC74072EB573203FB0CF7CE
:1030700034BFA2EBC742B2EBC74261EB57310CFB46
:103080000EF7B0EBC70072EB57720CFB08F734BFBA
:10309000A2EBC702B2EBC70261EB57714FEA816145
:1030A00041EA92114FEA826242EA90124FEA80604E
:1030B00015EB4C2544F100044FEAD13706FB07FC21
:1030C0004FEA1C4C0CFB0BF7D21B03FB0CF761EB1C
:1030D00007010CFB0EF7B0EB074072EB17420CFB3D
:1030E00008F734BFA2EB0742B2EB074261EB17418E
:1030F0004FEA813141EA92414FEA823242EA9042FC
:103100004FEA80304FEA0C7615EB1C1544F10004B1
:1031100048EA03434EEA0B484FF0000EB2EB080CAE
:1031200071EB030724BF624639464EEB0E0E4FF09B
:10313000000B0018524149414BEB0B0BB2EB080C52
:1031400071EB03077BF1000B24BF624639464EEB5F
:103150000E0E4FF0000B0018524149414BEB0B0B88
:10316000B2EB080C71EB03077BF1000B24BF624646
:1031700039464EEB0E0E51EA020718BF46F0010623
:1031800016EB0E7655F1000254F1000103D5BDE8AF
:103190008901BDE80088BDE88901BDE80048B6198D
:1031A000524141EB0101A3F10103704780807F7E12
:1031B0007D7C7B7A797877767675747372717170AD
:1031C0006F6E6E6D6C6C6B6A6A696868676666655F
:1031D0006464636362616160605F5F5E5E5D5D5CED
:1031E0005C5B5B5A5A59595858575756565555555E
:1031F0005454535352525251515050504F4F4F4EBE
:103200004E4D4D4D4C4C4C4B4B4B4A4A4A4949490B
:10321000484848474747474646464545454444444D
:103220004443434343424242424141419C46002B76
:1032300030D477002BD04FEA37071CB503B44FF0DA
:1032400010004FF01001BAF1000F06D0BCF1000FD2
:10325000DCBF40F0080040F008014FF000000FBC58
:10326000BDE810400BF1010BBBF1010F08BF5FEA95
:10327000170722BF12F1010211F101014FF00041C5
:1032800043F1000300F0004043EA00007047F9D327
:103290005708D0E746EA06464FEA164613F1400FB4
:1032A0001FDD13F1200FDFBF16430A460021203334
:1032B0005B42BED0C3F1200746EA06464FEA1646F7
:1032C00002FA07F746EA070622FA03F2C3F12007DB
:1032D00001FA07F742EA070221FA03F14FF000036F
:1032E000A7E746EA020646EA06464FEA164646EAD7
:1032F0000106BCBF46EA0646360C4FF000034FF00D
:1033000000024FF0000194E72DE9804C70B49A461A
:10331000934691E8380007C831EA400C48BF34EAC8
:10332000430C03D5FFF7E6FDFFF780FFF0BCBDE8D7
:10333000008C2DE9804C70B49A46934691E8380091
:1033400007C810F0804F08BF13F0804F03D100F082
:1033500005F8FFF76BFFF0BCBDE8008C20F07F475D
:1033600023F07F4C80EA030000F0004007EB0C03E1
:10337000A3F57C53A3F1FE0392F0000F00F0B3809D
:1033800095F0000F00F077802DE901494FEA1140D8
:1033900021EA00484FEA144624EA064700FB06FCEF
:1033A00008FB06F607FB08F818EB06484CEB164C32
:1033B00000FB07F718EB07484CEB17404FEA124B9E
:1033C00022EA0B4E4FEA154625EA06470BFB06FCA0
:1033D0000EFB06F607FB0EFE1EEB064E4CEB164CE4
:1033E0000BFB07F71EEB074E4CEB174B18EB0B08CC
:1033F00040F1000018EB0E0B58EB000840F1000004
:103400008F1A4FF000014FF000063CBFC943661B06
:1034100014BFB5EB040C00213CBFC943F61B4FEAB7
:10342000174427EA04454FEA1C472CEA074C04FBE3
:10343000076205FB07F70CFB05F616EB074642EBA8
:10344000174204FB0CFC16EB0C4642EB1C421BEB38
:10345000060658EB020241414EEA8E0E46EA9E06EF
:1034600001D5BDE80189B619524141EB0101A3F133
:103470000103BDE801894FEA144524EA05464FEAF5
:10348000114721EA074C05FB07F406FB07F70CFB85
:1034900006F111EB074144EB174405FB0CFC11EB63
:1034A0000C4144EB1C444FEA124722EA074C05FB4F
:1034B00007F206FB07F70CFB06F616EB074642EB96
:1034C000174205FB0CFC16EB0C4642EB1C456A1838
:1034D00054F1000148BF7047B619524141EB010158
:1034E000A3F10103704795F0000F37D04FEA114266
:1034F00021EA02464FEA144724EA074C02FB07F18F
:1035000006FB07F70CFB06F414EB074441EB1741ED
:1035100002FB0CFC14EB0C4441EB1C414FEA154739
:1035200025EA074C02FB07F506FB07F70CFB06F63E
:1035300016EB074645EB174502FB0CFC16EB0C4659
:1035400045EB1C42121951F1000148BF7047B619F2
:10355000524141EB0101A3F1010370474FEA1445C9
:1035600024EA05464FEA114721EA074C05FB07F11B
:1035700006FB07F70CFB06F212EB074241EB174183
:1035800005FB0CFC12EB0C4251EB1C414FF000060A
:1035900048BF7047921841EB0101A3F10103704746
:1035A000490050EAC12018BF04204A0D18BF40F05E
:1035B000010040F2FF72B2EB515F08BF40F0020021
:1035C000012808BF052070472DE9F0414F1E00EB90
:1035D000C7010446D1E9000115461E4637F0060230
:1035E0000DD02A46334600F0F7FB7F1E04EBC703DD
:1035F000D3E9002300F0CEF937F00602F1D1022F13
:1036000025D0042F13D0062F18BFBDE8F0812A461D
:10361000334600F0E1FBD4E90A2300F0BBF92A4667
:10362000334600F0D9FBD4E9082300F0B3F92A4669
:10363000334600F0D1FBD4E9062300F0ABF92A466B
:10364000334600F0C9FBD4E9042300F0A3F92A466D
:10365000334600F0C1FBD4E9022300F09BF92A466F
:10366000334600F0B9FBD4E90023BDE8F04100F097
:1036700091B9012201F073B9024A0020110701F04B
:103680006EB9000001FDFFFF30380A2801D2012089
:1036900070470020704700002DE9F84F04460D46A2
:1036A00021F0004000917349814211DC7249884247
:1036B00001DC06D12CB120462946BDE8F84FFFF7C2
:1036C000D8BF6E48002DCCBF6D496E49BDE8F88F5C
:1036D0006D49814211DD6D498142D8BF4FF0FF36FF
:1036E0006DDD20462946FFF75BFF042808BFFFF782
:1036F000C3FF20462946BDE8F88F6549654F25F090
:103700000045814233DD6449814219DD002632469D
:103710004FF080432046294600F03CF980468A4617
:1037200001222046294601F01AF900223B4600F00A
:1037300043FD4246534600F0DDF904460D463EE0A7
:1037400001260022BA463B462046294600F022F9CF
:1037500080460F46002253462046294600F02CFDA5
:1037600042463B4600F0C6F904460D4627E04B4969
:1037700081421BDDDFF828A10226002253462046A5
:10378000294600F029FB00223B4600F003F9804661
:103790000F46002253462046294600F00DFD4246C2
:1037A0003B4600F0A7F904460D4608E003262246F2
:1037B0002B4600203B4900F09DF904460D46224669
:1037C0002B461046194600F007FB8B468246024600
:1037D0000B4600F001FB07460246334888460B467D
:1037E00006217844FFF7F0FE52465B4600F0F4FAFB
:1037F00082462E488B463A46434605217844FFF7D9
:10380000E3FE3A46434600F0E7FA02460B46002E36
:10381000504659460CDA00F0BDF822462B4600F01F
:10382000DBFA01B022462B46BDE8F04F00F0D2BBD8
:1038300000F0B0F822462B4600F0CEFA1C4A7A443B
:1038400002EBC603D3E9002300F0B6FC22462B4668
:1038500000F0B2FC174A7A4402EBC603D3E9002316
:1038600000F0B8FB009A002AB8BF81F00041BDE823
:10387000F88F0000000010440000F07F182D445421
:10388000FB21F93FFB21F9BF0000DC3F0000203E97
:103890000000F33F0000F03F0000E63F00800340DF
:1038A0000000F83F0000F0BF72120000301200006C
:1038B000CE110000961100002DE9F04106460F469A
:1038C00000F094FB041E0D4618BF0120284320F091
:1038D0000040C0F17F6000F1E040C00F0ED0301C0E
:1038E00018BF0120384320F00040C0F17F6000F194
:1038F000E040C00F04BF0120FCF73CFD20462946F4
:10390000BDE8F08110B500290AD00878002807D05A
:1039100005487844FDF792F8002801D0002010BD3A
:103920000248784410BD0000561200004E120000FC
:1039300021F0004201F00043A2F16052B2F5801F75
:1039400028BFD2F17F6C0BD95FEA001C43EAC202A8
:1039500042EB507018BF704728BF20F0010070473D
:10396000B2F5801FBCBF184670474FEA410C1CF5EA
:10397000001F02D2084600F044BF70B500F0D6FA2E
:1039800000000089FFF7F6BF4FF00040A0F580006F
:103990007047000010B591EA030F48BF83F0004361
:1039A00000F11284841A71EB030C05D2121943EB57
:1039B0000C03001B61EB0C014FEA1154A4EB135CE8
:1039C000DFF81CE11EEA430F18BF9EEA445F00F0D7
:1039D000748021EA045123EA0E0343F48013DCF1DE
:1039E000200E32D322FA0CFE10EB0E0023FA0CFE4E
:1039F00041EB0E01CCF1200E03FA0EFE10EB0E008F
:103A0000CCF1200E51F10001B1F5801F32D201EB53
:103A1000045112FA0EF2BDE8104058BF7047401C26
:103A200038BF5FEA420218BF7047002814BF20F079
:103A3000010041F100014FEA410313F5001F38BFB7
:103A40007047A1F1C04100F0BFBA012A43EB030265
:103A5000ACF1200CDCF11F0E32BF4FF0000E23FA48
:103A60000CF310EB030041EB0451B4EB115FD0D029
:103A7000A1EB045101F58011490801EB04515FEA03
:103A800030000ED350F1000038BF12FA0EFE08D1FC
:103A9000BDE81040C9E7401C38BF5FEA4202CAD106
:103AA000C3E7BDE810404FEA410313F5001F38BFDC
:103AB0007047A1F1C04100F087BA9EEA445F08D088
:103AC00011EA5E0FBDE8104004BF01F00041002084
:103AD0007047BDE8104070B500F028FA64FBBE3EA8
:103AE0000000E0FF02494FF0000000F006BF00BFF9
:103AF0000000F87F2DE9C04130B4DFF8A4C23CEAF1
:103B0000111418BF3CEA131400F0ED801CEA1114E4
:103B100081EA030544EAD57418BF1CEA131500F0C6
:103B2000C880A4EB050404F17F7404F500344FF061
:103B3000004545EAC12145EAC32341EA505143EA21
:103B400052534FEAC0204FEAC222994208BF904226
:103B500000F09D804FEA13650FF24416765D4FEA40
:103B6000134506FB05F7C7F1807706FB07F74FEA19
:103B7000D737A7FB03687642A7FB06CEC8F5803887
:103B800038BFA8F1010807FB08E6A6FB028C4FF03E
:103B9000000EE6FB03CEDCF1000CCEF1004E38BF88
:103BA000AEF1010EA6FB0C584FF00007E6FB0E87A6
:103BB000A1FB08C6A0FB07CE16EB0E064FF00005D2
:103BC00045F10005E1FB076515F1E04E7EBFA4F568
:103BD00080345FEA46066D4116F1800745F1000525
:103BE0004FEA172747EA05674FEA15254FEA0666A9
:103BF000A6F1DE46B6F1805F20D9384605EBC471E8
:103C000024F0010C01EB0C11BCF1FE6F02D8F0BCEA
:103C1000BDE8008124425CBF01F5801E9EEAC47F9E
:103C200002D4F0BCBDE80081244200F13980A1F14A
:103C3000C041F0BCBDE8004100F0C6B94FEAD02059
:103C400040EA41504FEAD1214FEAD22242EA4352A0
:103C50004FEAD323A7FB028607FB036605FB026638
:103C60001EEA0E0F58BFA6EB0056B6EB00564FEA01
:103C7000520E4EEAC37E18EB0E0E56EB530EBCD519
:103C800018EB02085E417F1C55F10005B5E74FF4C3
:103C900080154FF000074FF000064FF00008ACE72A
:103CA00001F1C04101F000414FF00000F0BCBDE85F
:103CB00000810CEA131511EA0C1F00D00CE013EA86
:103CC0000C1F00F026804FF0000081EA030101F094
:103CD0000041F0BCBDE80081F0BCBDE8004181EAD4
:103CE000030100F071B9F0BCBDE8004170B500F00F
:103CF0001DF900BF097EFC3E00F007B84FF0000040
:103D000081EA030101F00041704781EA030100F0FC
:103D10005BB9F0BCBDE8004122494FF0000070479C
:103D2000FFFDFBF9F7F5F4F2F0EEEDEBE9E8E6E480
:103D3000E3E1E0DEDDDBDAD8D7D5D4D3D1D0CFCD07
:103D4000CCCBCAC8C7C6C5C4C2C1C0BFBEBDBCBB40
:103D5000BAB9B8B7B6B5B4B3B2B1B0AFAEADACAB3B
:103D6000AAA9A8A8A7A6A5A4A3A3A2A1A09F9F9E15
:103D70009D9C9C9B9A9999989797969595949393C7
:103D8000929191908F8F8E8E8D8C8C8B8B8A89895E
:103D900088888787868585848483838282818180E1
:103DA0000000FF070000F87F10F0004248BF4042CB
:103DB000B0FA80F310FA03F10AD0C3F11D0303F542
:103DC000806302EB03524FEA415002EBD12170476E
:103DD0004FF000007047000070B5DFF848C11CEAE2
:103DE000111E1EBF1CEA13159EEA0C0F95EA0C0F5C
:103DF00000F06F8081EA03044EEAD47EAE4421EAEB
:103E00004C1123EA4C1341F4801143F48013AEF1BA
:103E10007F7EA1FB024CA0FB0365361955EB0C0518
:103E2000A1FB034C4CF10003A0FB021C16EB0C069B
:103E3000654153F10003094218BF46F0010613F42F
:103E4000007F0BD14FEA03314FEA053041EA1551AB
:103E500040EA165034036FF003020AE04FEAC32130
:103E60004FEAC52041EA555140EA5650F4026FF03E
:103E7000020202EB2E4201EB025585EACE710AD016
:103E80005FEA440C18BF24F0004450F1000041F1F7
:103E9000000120EAD47040F2FE7C624500D270BD81
:103EA000A84214BF4FF080444FF04044002E08BF9A
:103EB0000024BEF1806FA8BFA1F1C041BDE87040F1
:103EC00080F2828001F1C04101F000414FF000001A
:103ED00070470CEA13159EEA0C0F18BF95EA0C0FF9
:103EE00006D081EA030E4FF000000EF0004170BDD5
:103EF00000F01CF88900013E00F007B800F009B896
:103F00004FEA430C5FEA5C5C08D081EA030100F0F1
:103F10005BB84FEA410C5FEA5C5CF6D102494FF0B6
:103F2000000070470000FF070000F87F0EF1020E4E
:103F30002EF0030E5EF8046B364205D4012A43EBE3
:103F4000030515F5001F12D8012841EB010C1CF5E3
:103F5000001F0CD80ED14FEAD17C0CEB4C0C0CF1AD
:103F6000020C15F5001F08BF4CEBD37C04E04FF0AA
:103F7000080C01E04FEAD37C0CEB4C0526FA05F661
:103F800006F00706B6F1040C06D20EEB860CBDE86F
:103F900070404CF0010C6047DFE80CF0090B0202A6
:103FA0004FF00041A1F500214FF0000070BD19460F
:103FB0001046012851EB010418BFD4F5001484BF4A
:103FC000002001F0004170BD0808A0F500114FEA83
:103FD0003101704710B591EA030F81F000413FF5C0
:103FE000E1AC83F0004300F0EFB800002DE9F041B0
:103FF00001F5801CBCF5001FC0F2C3804FEA115CC4
:1040000021EA0C5141F480110CF1FD0C5FEA5C0CCB
:104010000CF5C07C01D340004941890241EA90512E
:1040200087023BA48E0EA45D0A0C04FB04F602FB7F
:1040300006F6C6F14046A4FB0662F60D46EA4226A5
:1040400006FB06F4A4FB01235242C3F1404338BFF0
:104050005B1EA6FB02420024E6FB0324D20B42EACD
:104060004446A6FB0623A1FB02E2A3FB07E4A41837
:104070004FF0000252F10002E3FB01426442C2F140
:10408000404E38BFAEF1010EA6FB04234FF00002F4
:10409000E6FB0E32A2FB0346B6194FF0000454F1C2
:1040A0000004E2FB0264A1FB06E6A4FB07E816EBB2
:1040B00008064FF0000858F10008E4FB016876425A
:1040C000C8F1405838BFA8F10108A2FB06E4A3FBE1
:1040D00008E52D194FF0000454F10004E2FB0854E8
:1040E000A1FB05E6A7FB04E818EB06084FF0000665
:1040F00056F10006E1FB048618F1200556F1000692
:10410000A80940EA8660B109A8F11B0808F03F0839
:10411000B8F10A0F1CD901EB0C51BDE8F08100BFCA
:10412000FCF5EEE8E2DDD8D3CFCBC7C3C0BDB9B64E
:10413000B4B1AEACA9A7A5A3A19F9D9B9A98969553
:104140009392908F8D8C8B898887868584838281DA
:10415000A0FB006800FB01F208EB4208B8EB8728DF
:1041600007D5341858EB0104D5D5401C51F1000196
:10417000D1E7341A78EB0104CDD4401E71F100016F
:10418000C9E75FEA4C0C5FEA9C5C0DD105D301F0F6
:1041900000414FF00000BDE8F081BDE8F04170B58E
:1041A000FFF7C4FE6DDBFFBEBDE8F04101494FF0F3
:1041B000000070470000F87F10B591EA030F48BF78
:1041C00083F000433FF5EEAB841A71EB030C07D28A
:1041D0008CF0004C121943EB0C03001B61EB0C013B
:1041E0004FEA1154A4EB135CDFF8A4E11EEA430F7D
:1041F00018BF9EEA445F00F0B48021EA045123EA2C
:104200006E035242C3EB6E0338BF5B1EDCF1200E1F
:1042100025D322FA0CFE10EB0E0043FA0CFE41EB04
:104220000E01CCF1200E03FA0EFE10EB0E00CCF1C5
:10423000200E51F1000129D401EB045112FA0EF2C3
:10424000BDE8104058BF7047401C1CBFB2F1004F82
:10425000704700280CBF491C20F00100704712EB8A
:10426000020E43EB030218BF4FF0010E4EEA42026A
:10427000ACF1200CDCF11E0E56D943FA0CFE10EB0B
:104280000E00CCF11E0E51F1FF31D5D50EF1010E0D
:1042900012FA0EFE404141EB010101EB445C5FEA82
:1042A0005C5C10D901EB045110EBDE7038BFBEF13D
:1042B000004FBDE8104018BF704700280CBF491CD4
:1042C00020F00100704734D24FEAD42C24F400646B
:1042D00011F500111BD0B1FA81F20B3AA41AA41EF9
:1042E000D2F12003914030FA03F31943904001EBDF
:1042F000CC7101EB0451002CBDE81040A8BF704701
:1043000001F1C04101F000414FF000007047B0FAE8
:1043100080F310FA03F102D1BDE810407047E41AAF
:10432000173C4805C90AE2E701EB0451BDE810401B
:10433000704749104FEA300001EB0451BDE81040CE
:1043400002E04FF0000170474A0008BF0042F8D079
:10435000B2F5001F28BF704701F000414FF0000088
:1043600070479EEA445F07D011EA5E0FBDE8104037
:1043700004BF002100207047BDE8104070B5FFF772
:10438000D5FD00BF40DFF63E104683F00041704788
:104390000000E0FF43004FEAD30C4FEA3C0C4340DF
:1043A0001FBF40070CF1605113F0FE4F70471CF027
:1043B000006F03D10CF00041002070470CF0004367
:1043C00043EA507040EACC0010B500F0D4F900BFC9
:1043D000000000924FEA0001FFF7F6BD4FF00041E8
:1043E000A1F500214FF000007047000090EA010F96
:1043F00048BF81F0004100F11082421A3CBF801A90
:1044000089184FEAD052A2EBD1534FF07F4C1CEAEF
:10441000410F18BF9CEA026F00F03B804FF0004C48
:104420004CEA00204CEA012121FA03FC10EB0C0CB1
:104430001ED202F1FF325FEA1C2040EBC25038BFAF
:1044400070471CF07F0F4FEA400C18BFBCF17F4F44
:1044500038BF7047C3F12003994008BF20F0010026
:10446000BCF17F4F38BF7047A0F1C04000F0C9B920
:104470004FEA3C00000A40EBC25028BF1CF0FF0F7F
:104480004FEA400CE6D018BFBCF17F4F38BF7047F1
:10449000EAE79CEA026F05D010EA5C0F08BF00F063
:1044A0000040704710B500F066F900BF64FBBE3EE7
:1044B0004FF47F0C1CEAD0121EBF1CEAD11392EA03
:1044C0000C0F93EA0C0F00F0858090EA010F48BFB3
:1044D00042F4807240F4000C41F400002CF07F4163
:1044E00020F07F4000B5A2EB030281420FF2081CCE
:1044F000ACEB504E9EF800E0C0F100004FEA4E0ECB
:1045000000FB0EFC38BF49004FEA2C1C0CFB0EF3DD
:104510004FEACE1E0EEB635E4FEA112C0EFB0CFC35
:104520004FEAC1214FEA1C5300FB031102F5FA02C6
:104530004FEA112C0EFB0CFC4FEA01314FEADC4C28
:1045400000FB0C1142EB2242C14228BF09184CEB80
:1045500003335DF804EB10EB410143EBC250B2F5BD
:104560007C0F38BF704729D512F0F00F1CBF00F147
:10457000C04000F0004070470081828384858687B8
:1045800088898B8C8D8E8F919293959697999A9C12
:104590009D9FA0A2A3A5A7A8AAACAEB0B2B3B5B781
:1045A000B9BCBEC0C2C5C7C9CCCED1D4D7D9DCDF57
:1045B000E2E6E9ECF0F3F7FAFE0000004FEA400C07
:1045C0000CF1807CBCF17E4F28BF7047B0F1C04039
:1045D00000F017B90CEAD11390EA010F48BF42F47A
:1045E0008072624538BF634507D213F47F0F16D03F
:1045F00080EA010000F00040704710B500F0BBF801
:10460000097EFC3E00F005B880EA010000F00040A1
:10461000704780EA010000F0004000F0F2B812F4A8
:104620007F0F04BF0248704780EA010000F0E9B83C
:104630000000C07FC10DD1F19E0206DB4FEA0023CE
:1046400043F0004323FA02F07047004207D54FEAD7
:104650004001B1F1FE4F02D24FF00000704710B59B
:1046600000F089F849922480002070476FEA20000A
:10467000704700004FF47F0C1CEAD0121EBF1CEAEA
:10468000D11392EA0C0F93EA0C0F00F0478090EAE6
:10469000010F48BF42F480724FF0004C4CEA0020FA
:1046A0004CEA012102EB0302A0FB0113A2F5000278
:1046B000002918BF43F001035B0028BF4FEA330312
:1046C00042EB22425FEA132C4CEBC2502EBFBCEBF4
:1046D000436FB2F57C0F70474FEA036CBCF1004F9B
:1046E00008BF20F00100B2F57C0F38BF70470BD532
:1046F00082F0FF0212F5803FC8BF704700F1C04052
:10470000D8BF00F00040704700F5000C5FEA4C0C89
:1047100048BF7047B0F1C04000F073B80CEAD11345
:1047200090EA010F48BF42F48072624538BF63458A
:1047300004D280EA010000F00040704710B500F09C
:104740001AF800BF8900013E00F007B800F009B870
:104750005FEA410C5FEA1C6C08D080EA010000F0BF
:1047600050B85FEA400C5FEA1C6CF6D14FF0004095
:10477000A0F5800070470EF1020E2EF0030E5EF8D9
:10478000044B244204D44FEA4102B2F17F4F11D8C6
:104790004FEA4003B3F17F4F0CD80ED14FEAD07CE3
:1047A0000CEB4C0C0CF1020CB2F17F4F08BF4CEB40
:1047B000D17C04E04FF0080C01E04FEAD17C0CEB17
:1047C0004C0324FA03F404F00704B4F1040C06D2F9
:1047D0000EEB840CBDE810404CF0010C6047DFE8A4
:1047E0000CF0070802024FF00040A0F5800010BD59
:1047F0000846420018BFD2F1807288BF00F0004026
:1048000010BDFF2141EAD050C005704790EA010F6A
:1048100048BF81F000413FF5F0AD421A04D882F064
:104820000042A0EB020011444FEAD052A2EBD15358
:104830004FF07F4C1CEA410F18BF9CEA026F4AD030
:104840004FF0004C4CEA00204CEA012121FA03FC15
:10485000B0EB0C0C0FD412F0FE0F36D05FEA4C0018
:104860001DD5001240EBC25038BF70471CF03F0FFF
:1048700018BF70470BE05FEA1C20A2F1010240EB79
:10488000C25038BF70471CF07F0F18BF7047C3F18C
:104890002003994014BF401E20F0010070474FEAEA
:1048A0001223800808BF7047B0FA80FCA2EB0C020C
:1048B000CCF1280C60FA0CF093EA122F04BF00EB45
:1048C000C25070474FEAC3707047130A5FEADC10AA
:1048D00008BF7047F6E79CEA026F04D010EA5C0F4D
:1048E00008BF0020704710B5FFF745FF40DFF63ED8
:1048F00081F000407047FBF71BBE0CF00F03092B43
:1049000008BF082000F059800A2B0BD0082B18BFD5
:10491000704708BF1CF0400F0AD04FF000004FF066
:10492000000170471CF0400F18BF4FF00040704767
:104930001CF0100F08D000F07F4220F0704342EAD4
:10494000D3014FEA4370704700F0604021F07F428E
:1049500042EA000201F07F4040EA727070474FF077
:10496000FF0C4CF4E06C1CEA11531CBF9CEA030CD6
:104970009445C2BFDA4201EB02517047002B0DD0C3
:10498000BCF1000F0FD001F00041002AA4BF41F09C
:10499000E04141F07F614FF00000704701F00041BD
:1049A0004FF00000704750EA01334FF09B0C18BFE6
:1049B0004CF0806C7FF496A870471CF4801F11D0D7
:1049C0001CF4E02F03D06FEACC31490070474FF060
:1049D0004050EFF3008222F0704242EA000282F37C
:1049E000008870474FF00000704700000000000092
:1049F0004FBB610567ACDD3F182D4454FB21E93FF7
:104A00009BF681D20B73EF3F182D4454FB21F93FE5
:104A1000E2652F227F2B7A3C075C143326A6813C6B
:104A2000BDCBF07A8807703C075C143326A6913C16
:104A3000C4EB98999999C9BF711623FEC671BCBF82
:104A40006D9A74AFF2B0B3BF9AFDDE522DDEADBFEA
:104A50002F6C6A2C44B4A2BF0D5555555555D53F02
:104A6000FF8300922449C23F6E204CC5CD45B73F1D
:104A7000513DD0A0660DB13FEB0D76244B7BA93F95
:104A800011DA22E33AAD903F02400000000000A09E
:104A90000000000005400000000000C80000000009
:104AA0000C4000000000409C000000001940000085
:104AB0000020BCBE0000000034400000BFC91B8EB7
:104AC00000000004B5400000504BCFD06607E2CF95
:104AD000010000006C4100003E8251AADFEEA734C5
:104AE00001000000D9420000DCB5A0E23A301F9777
:104AF000FFFFFFFFB4450000FD25A0C8E9A3C14F9B
:104B0000FFFFFFFFFF3F00000000008000000000EB
:104B1000FF3F0000000000800000000001020000D4
:104B2000000000000000010203040607080900005D
:104B300000000102030402030405060708090A0B2A
:104B40000C0D0E0F10100000884B00080000002014
:104B50001800000028010008A04B000818000020E1
:104B600008070000440100081C000000430000008A
:104B7000F8FFFFFF0C0000000E0000000F00000017
:104B80002E00000000000000D00000000AD7233CE7
:104B900001000000100000000024F40000000000EC
:04000005080000ED02
:00000001FF
