:020000040800F2
:1000000010070020A101000885270008391F0008FB
:1000100081270008B10A00089927000800000000A5
:100020000000000000000000000000008D27000814
:10003000B50A000800000000892700089127000881
:10004000BB010008BB010008BB010008BB010008A0
:10005000BB010008BB010008BB010008BB01000890
:10006000BB010008BB010008BB010008BB01000880
:10007000BB010008BB010008BB010008BB01000870
:10008000BB010008BB010008BB010008BB01000860
:10009000BB010008BB010008BB010008BB01000850
:1000A000BB010008BB010008BB010008BB01000840
:1000B000BB010008BB010008BB010008BB01000830
:1000C000BB010008BB010008BB010008BB01000820
:1000D000BB010008BB010008BB010008BB01000810
:1000E000BB010008BB010008BB01000800F002F8DA
:1000F00000F047F80AA090E8000C82448344AAF17B
:100100000107DA4501D100F03CF8AFF2090EBAE878
:100110000F0013F0010F18BFFB1A43F0010318473B
:10012000A0380000C0380000103A24BF78C878C159
:10013000FAD8520724BF30C830C144BF04680C60ED
:10014000704700000023002400250026103A28BF35
:1001500078C1FBD8520728BF30C148BF0B60704739
:10016000662903F0CB83002070471FB500F02AFBFF
:1001700004000020002103F093F8E0601FBD10B5DB
:1001800010BD00F01FFC1146FFF7EFFF02F006FB69
:1001900000F03DFC03B4FFF7F2FF03BC00F080FC6D
:1001A0000948804709480047FEE7FEE7FEE7FEE70B
:1001B000FEE7FEE7FEE7FEE7FEE7FEE70448054947
:1001C000054A064B7047000095270008ED0000081F
:1001D0001001002010070020100300201003002051
:1001E0000FB41CB5074B06AA7B44694600900598DE
:1001F00000F0CFFA0020694600F0DEFA1CBC5DF882
:1002000014FB0000CD0500002DE9F0474FF0000A77
:1002100089460446C0F820A02046E16888470028A7
:1002200076D0252806D0D4E901219047206A401CC9
:100230002062F1E7E168204600258847C4F81CA049
:1002400006460027C4F818A02A2E09D0304603F02D
:100250001FF838B304EB8708303EC8F8186019E07F
:1002600059F8041B204604EB87029161E168884736
:10027000012F064618D1E069002820DA25F0200574
:100280001DE0D8F8180000EB800006EB4000303885
:10029000C8F818002046E1688847064602F0F8FFD3
:1002A0000028EED1012F0AD02E2E08D12046E16879
:1002B00088477F1C0646022F45F02005C4DBA06955
:1002C000002803DA404245F00105A061E80701D0AB
:1002D00025F01005B6B1A6F14100192802D8203644
:1002E00045F400654A463146204625604D46FFF7F5
:1002F00037FF58B1012806D0ED1D25F0070000F1A9
:10030000080989E704E005F1040985E730468AE732
:10031000206ABDE8F0874FF0000200B5134694460E
:100320009646203922BFA0E80C50A0E80C50B1F14D
:100330002001BFF4F7AF090728BFA0E80C5048BF61
:100340000CC05DF804EB890028BF40F8042B08BFFF
:10035000704748BF20F8022B11F0804F18BF00F8FB
:10036000012B70477047704770472DE9FF4F0C46CF
:100370001E464FF0FF378BB0D2E90001DDF86080F8
:100380000A908A46C1F30A5505B93D460021084640
:100390004FF00000BAF1000F00F4400005DA00EB66
:1003A00080004FF4400101EA50004FEA9059B9F142
:1003B000010F00DDB9460A9850EA4A000ED044F613
:1003C0001050A5F2FF3545432F14B8F1000F1ED091
:1003D0007542291E1EDDC9F100021CE0B8F1010FB3
:1003E0004FF0000001D0302103E0F24305E021543A
:1003F000401CB042FBDB30460022002121540B9907
:10040000C1F80880C1E900200FB0BDE8F08FBD1B26
:100410006D1CDEE74A4600DA694206A800F05CFA85
:1004200006AB93E8070003AB83E8070050460A9940
:1004300002F052FB8DE80700A0F500501F38009035
:100440000398002D0ADD42F21F014A4608440023AA
:1004500003A90390684602F0BBFD09E0A0F5005037
:100460004A461F38002303A90390684602F0C5FDE1
:100470008DE807000004000C03D04FF0FF30410866
:1004800000E01046B8F1000F03D00022009215469C
:100490001EE0751E05D400F099F9303262556D1ECC
:1004A000F9D5B3460122084302D000227F1C04E0A4
:1004B0002078302801D100227F1E002A099784D09D
:1004C0001DE0112D07DA00F081F9303262556D1C04
:1004D00050EA0102F5D1084302D00098C8B10EE0FD
:1004E0000021681E05E0235C625C63542254401EB8
:1004F000491C8142F7DBAB46A81B401E0990002037
:1005000004F80B000B98099AC0F80880C0E9002B8A
:100510007AE711264FF0000857E72DE9F04F88469B
:100520000446D21D22F0070191B0D1E90001CDE9C6
:100530000A0102F099FE02460B98C00F01D02D204F
:1005400007E02068810701D52B2002E0202101EA85
:10055000C000032A099001D0072A05DB0346414663
:10056000204600F079F90BE12078800601D5E0699A
:1005700000E00620B8F1650F814606D0B8F1660F9D
:1005800018D0B8F1670F70D131E00020B9F1110F28
:10059000009001DB112301E009F101030AAA01A97E
:1005A0000CA8FFF7E2FEDDE90C70002609F1010559
:1005B000834647E001204B4600904FF000470AAACF
:1005C00001A90CA8FFF7D1FEDDE90DB00C995D463D
:1005D000002610B909F101000D18B9EB050003D48C
:1005E000C0F1FF3609F10105A5EB09002BE0B9F1D7
:1005F000010F01DA4FF001090020B9F1110F00904D
:10060000484601DD112300E003460AAA01A90CA80F
:10061000FFF7ABFEDDE90C704D46002683462078DF
:1006200000070AD4AB4500DA5D4601A8012D04DDC0
:10063000411911F8011C302907D04F4502DA17F192
:10064000040F04DA012082460FE06D1EEEE7002F52
:1006500002DCED1B3E4403E0781CA84200DD7D1C5B
:10066000B81B00F1010A4FF000472078000703D4BF
:10067000AA4501DB4FF0FF3A0021B7F1004F0DF121
:1006800043088DF8431024D002202B23002F01DAD9
:100690007F422D230A21021EA0F1010000DC5FB180
:1006A00097FBF1FC97FBF1F201FB1C7C17460CF168
:1006B000300C08F801CDEEE7A8F1010003702188A5
:1006C000090501D5452100E06521A0F1010800F8E8
:1006D000011C09980FA9A1EB0807FF1D00B101201B
:1006E000411901EBEA70A1693844081A401EA06163
:1006F0002078C00602D42046AFF30080099828B1C4
:10070000D4E901219047206A401C20622078C0066D
:1007100022D52046AFF300801EE0002E04DBB34557
:1007200002DD01A8805D00E03020D4E9012190477E
:10073000206A401C2062761CAAF101005FEA000AD0
:100740000AD100F03FF8C0680168405CD4E901219B
:100750009047206A401C2062281EA5F10105DCDCC0
:1007600007E0D4E9012118F8010B9047206A401CEA
:100770002062381EA7F10107F3DC2046AFF30080AA
:10078000032011B041E6000001694A1C02610878AB
:10079000704700B58FB0CDE90131002105910549C1
:1007A0007944CDE9031011466846FFF72DFD0FB0DF
:1007B00000BD0000E5FFFFFF0A6802F8010B0A60B8
:1007C00070470000004870473000002030B5B0F19D
:1007D0000A0271F100034FEA900E4EEA817EB0EBFF
:1007E0000E0061EB91014FEA101E4EEA017E10EB04
:1007F0000E0041EB11114FEA102E4EEA016E10EB84
:100800000E0041EB11214FEA104E4EEA014E10EB63
:100810000E0041EB1141401841F100014FEAD000B8
:1008200040EA41704FEAD1014FEA810444EA9074F2
:1008300010EB800544EB01046D1944EB0404521BDA
:10084000A3414FF0000348BF0A3200D530BD401C21
:1008500041F1000130BD00002DE9F0411F46044682
:1008600003260168072A01F4006004DB08B116A51D
:1008700005E016A503E008B115A500E015A521F0D7
:1008800010002060A069C01EA0610FB1401EA061D1
:100890002046AFF300804FB1D4E90121384690479C
:1008A000206A401C2062C01C206206E0206AFAE731
:1008B000D4E9012115F8010B9047761EF8D22046A5
:1008C000AFF30080BDE8F0814E414E006E616E00D6
:1008D000494E4600696E66002DE9F047814616468E
:1008E0008AB0354878440DC88DE80D003248784408
:1008F000801C03AC0DC884E80D0041F69B30084411
:10090000372190FBF1F290FBF1F5A5F1800501FB99
:1009100012041B3C02D56442012000E00020DFF8F5
:1009200098A080460027FA44AAF1BE0A0EE0E0072C
:100930000AD03246684607EB470101230AEB8101E2
:1009400002F05BFB8DE8070064107F1C002CEED1E9
:10095000194F7F44AE3F19E0E80715D007EB0410AC
:100960000DF1180A90E80E008AE80E00C068F04207
:1009700001D1981908903246012306A903A802F074
:100980003CFB03AB83E807006D10641C002DE3D132
:100990004FF0010332466946B8F1000F03A802D0B8
:1009A00002F016FB01E002F028FBC9E90001C9F8DA
:1009B00008200AB0BDE8F087943000000048704776
:1009C000100000207546FFF7F9FFAE4605006946A6
:1009D000534620F00700854618B020B5FFF7EEFB20
:1009E000BDE820404FF000064FF000074FF0000830
:1009F0004FF0000BAC46ACE8C009ACE8C009ACE86D
:100A0000C009ACE8C00921F007018D46704710B558
:100A10000446AFF300802046BDE81040FFF7BABBA4
:100A20004FF0013C50F8042B51F8043B9A4221D17D
:100A3000A2EB0C03934313EACC1317D150F8042B09
:100A400051F8043B9A4215D1A2EB0C03934313EAED
:100A5000CC130BD150F8042B51F8043B9A4209D126
:100A6000A2EB0C03934313EACC13DBD04FF000004E
:100A7000704700BFD01A01BAB1FA81F101F0180134
:100A800022FA01F0CB40DBB2C0B2C01AC1F12001A2
:100A90002CFA01F3D11A914311EAC311E6D1704740
:100AA00001491820ABBEFEE7260002007047000097
:100AB000FEE7000070470000B0B5044600F01AF9E8
:100AC000054640F20000C2F200000078611C18BF29
:100AD000044400BF00F00EF9401BA042FAD3B0BDA1
:100AE0002DE9F04F82B041F20042C4F201020E68DB
:100AF0000423904208BF0323002E009300F0F680E9
:100B000040F20C4E4FF6FF7CC4F2010E002201248D
:100B1000C1F2100C4FF0000A4FF0000943E000BF93
:100B2000012502F00C040F27A7402BEA070705FA5E
:100B300004F43C4343F82640D1F804B040F20045A9
:100B4000C4F201055FEACB332B6854BF23EA0803E4
:100B500043EA08032B606B685FEA8B3454BF23EAD7
:100B6000080343EA08036B605FEACB24AB6854BF19
:100B700023EA080343EA08035FEA8B24AB60DEF84C
:100B800000304FF0010454BF23EA080343EA08038E
:100B9000CEF800300E680AF1010A36FA0AF302F1C3
:100BA000040200F0A38004FA0AF816EA080FF1D054
:100BB0004B68634512DC122B56D8DFE803F0350B87
:100BC0004549555555555555555555555555554DF9
:100BD000510000BFD1F80C9046E000BF4FF6FF7700
:100BE000C1F22107BB420FDC0027C1F21107BB4253
:100BF0001AD00027C1F21207BB4215D00027C1F25C
:100C00002107BB4210D02FE00027C1F22207BB42D0
:100C10000AD00027C1F23107BB4205D00027C1F23C
:100C20003207BB4220D100BF8B684BB1012B14BFF0
:100C3000C0F81480C0F810804FF0080914E000BF1D
:100C40004FF0040910E000BFCB6803F108090BE086
:100C50004FF0000908E000BFCB6803F1040903E08E
:100C6000CB6803F10C0900BF13460546BAF1080F23
:100C700024BF203B04352E680F279F40BE4309FA4E
:100C800003F333432B60CB79DB067FF583AF41F26F
:100C90001804C4F2020423684FEA9A0643F00103E1
:100CA0002360236840F6000403F001030193019BD5
:100CB00040F20043C4F20103A3F57E7353F826B05B
:100CC000C4F20104A0420FD040F60044C4F2010473
:100CD000A0423FF425AF41F20004C4F20104009D9C
:100CE000A04208BF02251CE700251AE702B0BDE8B4
:100CF000F08F000040F20810C2F200000068704758
:100D000070B5B8B3044690F83D0028B9002084F8C7
:100D10003C00204600F0BAFB242084F83D00206807
:100D2000016821F001010160016841F400410160A6
:100D3000016821F40041016000F062FD48F2804149
:100D4000C0F21E0140F60013D4F804E088424FF0D0
:100D50000001C0F23D0348F2A16C4FF0000238BF21
:100D600001219842C0F2010C38BF0122E64538BF8C
:100D70000A460AB1012070BD4DF68361C4F21B31F1
:100D8000A0FB01122168950C4B684FF4967623F076
:100D90003F0343EA9243754344F6D3564B60C1F296
:100DA00062060B6AA5FB0656B50923F03F03E6452C
:100DB00038BF950C6A1C1A430A62CA6948F2A066D9
:100DC0004CF6FF73C0F20106B64522EA03020BD8C7
:100DD00001384FEA4E03B0FBF3F001306FF31F30E0
:100DE000042898BF04201EE0A368013863B11923CA
:100DF0000EFB03F3B0FBF3F001306FF31F3078B15B
:100E000000F5804008E000BF0EEB4E03B0FBF3F0AE
:100E100001306FF31F3028B100F5004003E000BF40
:100E2000012000E001201043C8610868D4E90723CD
:100E300020F0C000104318430860886848F2FF3271
:100E400004F10C0690434CCE18431043A56988600A
:100E5000C86820F0FF0030432843C860086840F0AD
:100E60000100086000202021206484F83D102063E8
:100E700084F83E0070BD00002DE9F04F85B00446B7
:100E800000201E4617460D460490FFF733FF94F8E6
:100E90003D10202923D1804620688169890719D512
:100EA000FFF728FFA0EB08001928F5D90020202122
:100EB000206384F83D1084F83E00206C04F13C0966
:100EC00040F0200020640220002189F8001005B0C5
:100ED000BDE8F08FA14619F83C1F012904D102207A
:100EE00005B0BDE8F08F00BF012289F8002003683B
:100EF000DDE90F1A0E9ADB0703D1036843F0010303
:100F00000360036823F400630360222084F83D003B
:100F1000402084F83E000020206462626185608D7C
:100F2000294620850020CFF6FF70E06220463A4631
:100F30003346CDF800A0CDF8048000F0FFFF18B1D3
:100F4000012005B0BDE8F08F208D022810D00128C7
:100F500024D0002838D100200390206841690391F3
:100F6000816903910399016841F40071016037E0E0
:100F70002068016841F400610160EFF3108072B6EF
:100F800000200390206841690391816903910399CE
:100F9000016821F48061016062B621E02068016887
:100FA00021F480610160EFF3108072B6002003909D
:100FB000206841690391816903910399016841F4B3
:100FC0000071016062B60BE02068016841F4806145
:100FD00001600021039141690391806903900398A6
:100FE000208D002800F0238140F2080B4BF2895736
:100FF0000AF10105C2F2000BC1F2F847232680B2C4
:10100000032819D8022845D001286FD1BAF1000F62
:1010100000F0FA802068014651F8142F520600F1C2
:10102000F7800868C00600F12F81FFF763FEA0EB90
:1010300008005045EED91CE1BAF1000F12D000BFF4
:101040002068014651F8142F520610D40868C006D3
:1010500000F11A81FFF74EFEA0EB08005045EFD9D2
:1010600007E100BF20684169490640F1FB80006943
:10107000616A0870606A2268411C208D61620138D3
:101080002085638D013B638553695B0740F1CC800C
:101090001069BFE020684169490711D4002D00F0B4
:1010A0009380BAF1000F00F0E280FFF723FEA0EB7F
:1010B0000800504500F2DD80206840694007F4D503
:1010C000EFF3108072B62068616A026842F4007221
:1010D000026000690870606A218D01306062481EFC
:1010E0002085608D0138608562B668E020684169BE
:1010F000490710D4002D77D0BAF1000F00F0B78067
:10110000FFF7F8FDA0EB0800504500F2B280206820
:1011100041694907F4D5016821F480610160EFF36A
:10112000108072B62068616A00690870606A218D5B
:101130000130013960622185618D01396185DBF8FB
:101140000010C908A1FB0712110A71430491049908
:10115000013904910499002976D021684A6952071F
:101160001DD4049901390491049900296CD0216897
:101170004A69520713D4049901390491049900294A
:1011800062D021684A69520709D40499013904914F
:101190000499002958D021684A695207D7D50A68AE
:1011A00042F400720A6009690170606A218D0130A1
:1011B0006062481E2085608D0138608562B62068B7
:1011C000616A006926E000BF416949073FF578AFD1
:1011D000416949075CBF41695FEA41713FF570AF02
:1011E00041694907F0D56BE74169490793D44169E3
:1011F00049075CBF41695FEA41713FF58CAF4169C6
:101200004907F1D587E700BF20684169490629D51C
:101210000069616A0870606A218D01306062481E51
:101220002085618D0139618501047FF4E8AE2020BD
:1012300084F83D00002084F83E00002189F8001069
:1012400005B0BDE8F08F00BF00202021206384F8A6
:101250003D1084F83E00206C40F02000206462B60F
:101260001EE000BF50F8141FC90601460CD4FFF75A
:1012700041FD00202021206384F83D1084F83E00C9
:10128000206C40F020000AE06FF0100008600020A1
:101290002021206384F83D1084F83E00206C2064F7
:1012A0000120002189F8001005B0BDE8F08F000092
:1012B0002DE9F04383B0994616460F460446FFF7E2
:1012C00019FD94F83D1020291CD10546206881693C
:1012D000890713D5FFF70EFD401B1928F6D900200A
:1012E0002021206384F83D1084F83E00216C41F0F9
:1012F0002001216484F83C0004E000BF94F83C1015
:10130000012903D1022003B0BDE8F083012284F853
:101310003C200368DDE90B180A9ADB0703D1036858
:1013200043F001030360036823F40063036021209A
:1013300084F83D00402084F83E0000202064626272
:101340006185608D394620850020CFF6FF70E06210
:10135000204632464B46CDF80080019500F07EFFD6
:1013600020B1012003B0BDE8F08300BF208D00282C
:1013700050D0206808F10106014651F8142F1206DA
:101380002CD49EB1B8F1000F5AD000BF08684005B8
:101390005ED4FFF7AFFC401B404556D8206801469D
:1013A00051F8142F1206F1D518E000BF0A68520553
:1013B0004ED40A68120611D40A68520548D40A6845
:1013C00012060BD40A68520542D40A68120605D4E4
:1013D0000A6852053CD40A681206E7D5626A1146CB
:1013E00011F8013B0361238D6162591E2185678DD0
:1013F000013F678547697F070AD50F0408D05178F8
:101400000161911C6162991E2185628D013A62859C
:101410000904B1D1204641462A4601F059F838BBAB
:101420002068016841F400710160202084F83D00CB
:10143000002084F83E0084F83C0003B0BDE8F0834F
:101440000868400504D4FFF755FC202004E000BFE5
:101450006FF480600860042000212022216384F85A
:101460003D2084F83E10226C1043206484F83C1028
:10147000206C04287FF475AF2068016841F4007186
:101480000160012003B0BDE8F083000010B586B014
:10149000006845F20042C4F200020021904204912B
:1014A00002D006B010BD00BF41F21804C4F202041D
:1014B000206802A940F008002060206800F00800C1
:1014C000019001984FF44070029012200390032085
:1014D000059040F60040C4F20100FFF701FB042034
:1014E000C4F20100016841F0E06141F002010160D5
:1014F000606840F400106060606800F400100190C3
:10150000019806B010BD000040F2000040F2081142
:10151000C2F20000C2F2000100780A6810440860BC
:101520007047000080B542F20000C4F2020001687A
:1015300041F010010160032000F072F80F2000F06C
:1015400005F800F027F8002080BD000070B540F2DB
:101550000006C2F2000640F208013278C2F2000131
:101560004FF47A730968B3FBF2F20446B1FBF2F16F
:10157000084600F047FB0F2C4FF0010508D838B99A
:101580004FF0FF3021460022002500F01DF8746066
:10159000284670BD82B041F21800C4F20200016812
:1015A00041F001010160016801F00101019101991F
:1015B000416841F080514160406800F080500090E7
:1015C000009802B07047000010B54EF60C5CCEF2E9
:1015D000000CDCF80030C3F3022E8EF00704042C5C
:1015E00028BF0424BEF103034FF0FF3E0EFA04F4BB
:1015F00038BF0023A14399400EFA03F39A431143E5
:1016000000F00F02043A624409010C3200F1604319
:10161000B0F1FF3FC8BF03F56442117010BD000078
:101620004EF60C51CEF200010A684FF6FF031A4045
:1016300060F30A2242F0806040F0FD70086070475D
:101640002DE9F04381B0002800F0858042F20008C7
:10165000C4F202080446D8F800000D4600F0070066
:1016600088420CD2D8F8000020F007002843C8F8C0
:101670000000D8F8000000F00700A8426BD12068F5
:1016800041F204098107C4F2020917D5410705D5C3
:10169000D9F8001041F4E061C9F80010010705D540
:1016A000D9F8001041F46051C9F80010D9F80010C1
:1016B000A26821F0F0011143C9F80010C00741D120
:1016C000D8F8000000F00700A8420CD9D8F80000B4
:1016D00020F007002843C8F80000D8F8000000F008
:1016E0000700A84237D12068410707D5D9F8001074
:1016F000E26821F4E0611143C9F80010000708D541
:10170000D9F80000216920F4605040EAC100C9F80E
:101710000000D9F8002002F00C00082841F2002057
:10172000C0F27A0050D143F6AE13C2F38341C0F643
:101730000003595CD2033BD440F60010C0F23D00D8
:10174000484341E0606802280AD001282AD159F8AC
:10175000041C890308D4012001B0BDE8F08300BF58
:1017600059F8041C8901F6D5D9F8001021F00301BD
:101770000843C9F80000FFF7BDFA064641F2883772
:10178000D9F80000616800F00C00B0EB810F97D031
:10179000FFF7B0FA801BB842F2D9032001B0BDE8D0
:1017A000F08300BF59F8041C8907D4D5DCE700BFDB
:1017B000D9F8002043F69413C2F34042C0F6000368
:1017C0009A5C4843B0FBF2F0D9F8001043F6961249
:1017D000C1F30311C0F60002515C40F2080220FA86
:1017E00001F140F20400C2F200000068C2F20002FF
:1017F0001160FFF7ABFE002001B0BDE8F0830000F0
:1018000040F2080041F20401C2F20000C4F20201F9
:101810000068096843F6A612C1F30221C0F600026F
:10182000515CC8407047000040F2080041F20401DA
:10183000C2F20000C4F202010068096843F6A61271
:10184000C1F3C221C0F60002515CC84070470000DD
:101850002DE9F04182B0002868D00446007841F2BA
:101860000006C007C4F2020625D0706800F00C0024
:1018700004281BD0706800F00C00082802D17068A2
:10188000C00313D46068002800F06881B0F5A02F71
:1018900000F07C81B0F5803F00F07C81306820F45E
:1018A00080303060306820F4802076E1306880033A
:1018B00001D56068D0B32078800718D5706810F023
:1018C0000C0F07D0706800F00C0008286ED170680B
:1018D000C0036BD43068800702D52069012825D168
:1018E0003068616920F0F80040EAC100306020787B
:1018F00000071FD42078400732D4E56995B170689D
:1019000000F00C00082840F08F80012D0ED0706888
:10191000216A00F480328A4208D1616A00F47010B2
:10192000884203D1002002B0BDE8F081012002B05E
:10193000BDE8F081A069002862D00020C4F24220F6
:101940000121C0F88014FFF7D5F90546706A8007B9
:1019500000F18C80FFF7CEF9401B0228F6D92AE16E
:10196000F06910F0805808D1F06940F08050F061C3
:10197000F06900F080500090009847F20007C4F230
:1019800000073868C00529D4386840F48070386092
:10199000FFF7B0F9054600BF3868C0051ED4FFF751
:1019A000A9F9401B6428F7D905E100BF2069002888
:1019B00040F20000C4F2422000F082800121016068
:1019C000FFF798F9054600BF306880073FF588AFFC
:1019D000FFF790F9401B0228F6D9ECE0E0680028F8
:1019E00000F08080052800F09780012800F09880A2
:1019F000306A20F001003062306A20F0040092E08A
:101A00000020C4F242200021C0F88014FFF772F9D0
:101A1000054600BF706A80077FF56CAFFFF76AF973
:101A2000401B0228F6D9C6E00027C4F24227002056
:101A30003866FFF75FF9022D05460BD1306880014B
:101A400040F1BE80FFF756F9401B02284FF003001B
:101A5000F4D968E7306880017FF564AFFFF74AF991
:101A6000401B02284FF00300F4D95CE740F2080065
:101A7000C2F20000006844F6D351C1F26201A0FB3B
:101A80000101480A019000BF00BF0198411E0028D3
:101A900001913FF42FAF00BF0198411E0028019132
:101AA0003FF428AF00BF0198411E002801913FF488
:101AB00021AF00BF0198411E00280191E4D119E730
:101AC00000210160FFF716F9054600BF3068800766
:101AD0007FF50DAFFFF70EF9401B02284FF0030012
:101AE000F4D920E7306A20F001003062306A20F03B
:101AF00004003062FFF7FEF8054641F2883700BF68
:101B0000306A800720D5FFF7F5F8401BB8424FF048
:101B10000300F5D907E700BF306A40F004003062E7
:101B2000306A40F001003062FFF7E4F8054641F208
:101B3000883700BF306A800706D4FFF7DBF8401B08
:101B4000B842F7D937E000BFB8F1000F7FF4D5AE47
:101B5000F06920F08050F061CFE600BF306820F4DB
:101B600080303060306820F480203060FFF7C2F8A9
:101B7000054600BF306880037FF59DAEFFF7BAF8D9
:101B8000401B64284FF00300F4D9CCE6306840F4E1
:101B900080203060306840F480303060FFF7AAF871
:101BA000054600BF306880033FF585AEFFF7A2F819
:101BB000401B6428F6D9032002B0BDE8F08100BFC5
:101BC000206AB0F5803F05D17168A26821F4003128
:101BD000114371607168626A21F474111043084303
:101BE000706001203866FFF785F804463068800190
:101BF0003FF598AEFFF77EF8001B02284FF0030078
:101C0000F4D990E6411E0020B0EB116F1CBF0120FB
:101C100070474EF21002CEF2000251604EF6235190
:101C2000CEF20001F0230B70072190601160704725
:101C3000002804BF0120704710B5044690F83D000D
:101C400028B9002084F83C00204600F05FF82420EA
:101C500084F83D002068D4E90212C36823F40053DD
:101C6000C360036923F440531A430261D4E9042397
:101C70001143C268194341F20C639A431143C16096
:101C80004169A26921F44071114343F60002C4F294
:101C900001029042416103D0FFF7B2FD02E000BFB4
:101CA000FFF7C2FD6268192148439100B0FBF1F0D3
:101CB00048F21F51C5F2EB11A0FB01235A096FF046
:101CC000630302FB0300322303EB0010A0FB0101BE
:101CD000F02303EA5113206803EB0212C1F343110E
:101CE00011448160016921F490410161416921F051
:101CF0002A014161C16841F40051C16000202021E6
:101D0000206484F83D1084F83E1010BD70B586B094
:101D100040F60004C4F20104006804F540510026B6
:101D20008842049602D006B070BD00BF41F2180090
:101D3000C4F20200016802AD41F480410160016813
:101D400001F4804101910199016841F004010160B1
:101D50000068294600F00400019001984FF40070DB
:101D6000029002200390032005902046FEF7B8FE63
:101D70004FF48060CDE90206204629460496FEF71E
:101D8000AFFE06B070BD00002DE9F04381B00446FF
:101D900090F83D0020280DD10F4600294FF001009A
:101DA00000F092801646002A00F08E8094F83C00E5
:101DB000012803D1022001B0BDE8F083012084F89E
:101DC0003C004FF0000921201D46C4F8409084F8E3
:101DD0003D00FEF78FFFA684E684A1688046B1F53A
:101DE000805F25D1206900281CBF38464F463E46FB
:101DF000074684F83C90E08C00B3681C20D0002D8E
:101E000066D120680BE000BF36F8021B00276FF395
:101E10005F214160E18C0139E184E18C81B301688B
:101E2000090675D5002FEFD017F8011BF1E700BFA9
:101E3000002684F83C90E08C0028DED120681FE06A
:101E4000206802E00168090609D40168090606D481
:101E5000016809065CBF01685FEA0161F2D51FB144
:101E600017F8011B05E000BF36F8021B00276FF3CF
:101E70005F214160E18C0139E184E18C0029E4D1EA
:101E8000016849061CD4002D42D0691C0ED101689E
:101E9000490615D4016849065CBF01685FEA4161E3
:101EA0000ED401684906F2D50AE000BFFEF722FF12
:101EB000A0EB08012068A9422AD800684006F5D5A1
:101EC000202084F83D00002001B0BDE8F08300BF71
:101ED000206800BF0168090608D4FEF70BFFA0EBDD
:101EE00008012068A942F5D912E000BF17B117F820
:101EF000011B04E036F8021B00276FF35F214160ED
:101F0000E18C0139E184E18C0029E3D1B8E700BF1D
:101F1000C16821F4D071C160416921F001014161C2
:101F2000202084F83D0084F83E00002084F83C0026
:101F3000032001B0BDE8F083FEE700002DE9F04387
:101F400083B00446006899460368904643F4806273
:101F5000026002680B9D42F48072026042690A9E30
:101F6000D2070F461DD1711C11D0002E00F0368112
:101F7000FEF7C0FE401BB04200F23281206841698A
:101F8000C907F5D00DE000BF4169C90709D1416912
:101F9000C90706D14169C90704BF41695FEAC17138
:101FA000F2D007F0FE0707614169890738D441691B
:101FB000721C01F4806111D049BB002E00F03A81FF
:101FC000FEF798FE401BB04200F23681206841695E
:101FD000890725D441694905F2D518E0B9B94169A5
:101FE00089071DD44169490511D44169890717D46E
:101FF000416949050BD44169890711D441694905F3
:1020000005D4416989070BD441694905E7D50168C1
:1020100041F4007101606FF48061416104200CE1C2
:1020200000210291014651F8142F02924A6802924F
:10203000029A0A68120620D4002E00F0AB80721CAF
:1020400051D10A68520500F1AD800A68120614D415
:102050000A68520500F1A6800A6812060DD40A68C3
:10206000520500F19F800A68120606D40A685205DC
:1020700000F198800A681206E3D5B9F1010F45D046
:102080004FEA18210161014651F8142F12063DD480
:10209000002E00F07F80721C2AD10A68520500F1E0
:1020A00081800A68120631D40A6852057AD40A6817
:1020B00012062BD40A68520574D40A68120625D475
:1020C0000A6852056ED40A681206E6D51EE000BF03
:1020D000FEF710FE401BB04261D82068014651F85F
:1020E000142F1206C9D408684005F1D55AE000BF84
:1020F0000868400556D4FEF7FDFD401BB0424ED89F
:102100002068014651F8142F1206F1D55FFA88F1C4
:102110000161014651F8142F12061AD4D6B3721C6D
:1021200033D10A6852053DD40A68120611D40A68F0
:10213000520537D40A6812060BD40A68520531D406
:102140000A68120605D40A6852052BD40A681206DA
:10215000E7D50168002241F48071016020464FF00C
:1021600001113346009500F007FA002850D020688E
:10217000006844E0FEF7BEFD401BB0420FD8206867
:10218000014651F8142F1206E3D408684005F1D532
:1021900008E000BF0868400504D4FEF7ABFD20202E
:1021A00004E000BF6FF4806008600420002120225A
:1021B000216384F83D2084F83E10226C1043206493
:1021C00084F83C10206C042843D12068016841F455
:1021D00000710160012003B0BDE8F083FEF78AFDC5
:1021E00000202021206384F83D1084F83E00216CFB
:1021F00041F020012164216884F83C000868C00592
:1022000044BF4FF400702064032003B0BDE8F083A6
:10221000206847F0010101610221C0F2010120465E
:1022200032462B4600F050FA002818BF012003B0B8
:10223000BDE8F083FEF75EFD20200021202221630F
:1022400084F83D2084F83E10226C1043206484F80A
:102250003C10012003B0BDE8F08300002DE9F043FD
:1022600081B00446006890460268099D42F480727D
:1022700002604269089E9946D2070F461DD1711C23
:1022800011D0002E00F0D280FEF734FD401BB0428A
:1022900000F2CE8020684169C907F5D00DE000BF8B
:1022A0004169C90709D14169C90706D14169C9070F
:1022B00004BF41695FEAC171F2D007F0FE0101611C
:1022C0004169890738D44169721C01F4806111D0D9
:1022D00049BB002E00F0E880FEF70CFD401BB04229
:1022E00000F2E48020684169890725D441694905E5
:1022F000F2D518E0B9B9416989071DD4416949058A
:1023000011D44169890717D4416949050BD4416942
:10231000890711D44169490505D4416989070BD45E
:1023200041694905E7D5016841F4007101606FF426
:10233000806141610420BAE000210091014651F81A
:10234000142F00924A680092009A0A6812061ED45E
:10235000002E00F08580721C4DD10A68520500F1F4
:1023600087800A68120612D40A68520500F180803C
:102370000A6812060BD40A68520579D40A68120654
:1023800005D40A68520573D40A681206E5D5B9F176
:10239000010F43D04FEA18210161014651F8142F73
:1023A00012063BD4002E5BD0721C29D10A6852055C
:1023B0005ED40A68120631D40A68520558D40A68F5
:1023C00012062BD40A68520552D40A68120625D484
:1023D0000A6852054CD40A681206E7D51EE000BF11
:1023E000FEF788FC401BB0423FD82068014651F8F8
:1023F000142F1206CBD408684005F1D538E000BF91
:102400000868400534D4FEF775FC401BB0422CD858
:102410002068014651F8142F1206F1D55FFA88F1B1
:102420000161002001B0BDE8F08300BFFEF762FC4F
:1024300000202021206384F83D1084F83E00216CA8
:1024400041F020012164216884F83C000868C0053F
:1024500044BF4FF400702064032001B0BDE8F08356
:102460000868400504D4FEF745FC202004E000BFC6
:102470006FF480600860042000212022216384F82A
:102480003D2084F83E10226C1043206484F83C10F8
:10249000206C042817D12068016841F400710160A4
:1024A000012001B0BDE8F083FEF724FC20200021CC
:1024B0002022216384F83D2084F83E10226C1043D2
:1024C000206484F83C10012001B0BDE8F0830000D6
:1024D00070B50368044653F8140F400737D40E460E
:1024E000F1B1701C24D100BF1868400532D41868BF
:1024F00040072CD4186840052CD41868400726D40F
:102500001868400526D41868400720D4186840058C
:1025100020D4186840074FF0000048BF70BDE3E7C3
:102520001868400516D4FEF7E5FB202016E000BF32
:10253000154600BF186840050CD4FEF7DBFB401BB6
:10254000B042F2D8236853F8140F4007F2D50020A8
:1025500070BD00BF6FF4806018600420002120224D
:10256000216384F83D2084F83E10226C10432064DF
:10257000012084F83C1070BD2DE9F0410546144659
:10258000DDF8188001F47F002A681E46B0F5803F10
:102590008FB241D150693840C01BB0FA80F0400979
:1025A000A0427BD1701C2DD0002E7BD0FEF7A2FB69
:1025B000A0EB0800B04277D8286840693840C01BBB
:1025C000B0FA80F04009A042F0D00020BDE8F081D0
:1025D00050693840C01BB0FA80F04009A0425DD17C
:1025E00050693840C01BB0FA80F04009A04255D174
:1025F00050693840C01BB0FA80F04009A0424FF04B
:1026000000005FD150693840C01BB0FA80F040092B
:10261000A042DDD042E000BF90693840C01BB0FA54
:1026200080F04009A04239D1701C1FD0D6B300BF42
:10263000FEF760FBA0EB0800B04235D8286880693F
:102640003840C01BB0FA80F04009A042F0D0002012
:10265000BDE8F08190693840C01BB0FA80F04009B5
:10266000A0424FF0000018BFBDE8F08190693840EB
:10267000C01BB0FA80F04009A0420FD190693840E9
:10268000C01BB0FA80F04009A04207D190693840E1
:10269000C01BB0FA80F04009A042DBD00020BDE8AA
:1026A000F08100BFFEF726FB00202021286385F87B
:1026B0003D1085F83E00296C41F02001296485F821
:1026C0003C000120BDE8F081F0B581B0044600680F
:1026D0001D4643698FB203EA0701B94202D10020C7
:1026E00001B0F0BD41691646013201F480610FD09E
:1026F00059BB9EB3FEF7FEFA401BB04230D82068AB
:1027000041693940B942EAD041694905F2D51CE036
:10271000D9B941693940B942E1D04169490514D478
:1027200041693940B942DAD0416949050DD441695E
:102730003940B942D3D04169490506D4416939408D
:10274000B942CCD041694905E3D5016841F4007133
:1027500001606FF480614161042002E0FEF7CAFA73
:10276000202000212022216384F83D2084F83E109F
:10277000226C1043206484F83C10012001B0F0BDAD
:10278000FEE70000FEE70000704700007047000011
:10279000FEF7BABE70470000FEE70000A0B0FEF7EB
:1027A000C1FE00240120CDE91A44CDE91844199056
:1027B00010201A904FF460100DF1540902251E905C
:1027C0004846CDE916441595CDE91C54FFF740F86D
:1027D00020B1EFF3108072B6FEE700BF0F20CDE905
:1027E00010054FF4806010ADCDE913042846022196
:1027F0001294FEF725FF28B1EFF3108072B600BFE8
:10280000FEE700BF41F21800C4F20200016845F281
:10281000004841F0040101600168C4F2000801F0C1
:102820000401159115990168002441F00801016027
:10283000006848F2A06100F008001590159840F279
:102840007000C2F20000C0F201014FF48042C0E902
:102850000081C0E90244C0E90424C0E906440462DE
:10286000FEF74EFA20B1EFF3108072B6FEE700BF1C
:1028700040F20C0AC2F2000A40F270069AF8001008
:10288000C2F200064FF0FF3B012730466B220123C6
:102890008DF85440CDE90097CDF808B0FEF708FD5B
:1028A0009AF8001030461B2201238DF84040CDE9F4
:1028B0000057CDF808B0FEF7FBFC9AF800100DF1B8
:1028C0007F00CDE9000730461C2201238DF87F40B0
:1028D000CDF808B0FEF7ECFC07209AF800108DF850
:1028E0007E000DF17E00CDE900073046192201235C
:1028F000CDF808B0FEF7DCFC40F2C40008F56441F6
:10290000C2F200000C234FF4E13280E81600C0E967
:102910000344C0E90534C461FFF78AF920B1EFF33D
:10292000108072B6FEE700BF0A20129042F62D50CA
:10293000C0F62D5011904FF02D30109040F2C40091
:10294000C2F2000010A90A224FF0FF33FFF71CFA71
:1029500040F270069AF80010C2F2000606253046D2
:102960003B220123CDF800900195CDF808B0FEF789
:1029700083FABDF85400C0BA00F034FE0027C3F655
:10298000107700223B4600F045FE00F09FFCBDF8AA
:1029900056108046C8BA00F025FE00223B4600F0E3
:1029A00039FE00F093FCBDF858100446C8BA00F098
:1029B00019FE00223B4600F02DFE00F087FC9AF83D
:1029C00000100746304643220123CDE90095CDF89B
:1029D00008B0FEF751FABDF85400C0BA00F002FE8C
:1029E00046F20005C4F2600500222B4600F0A0FC70
:1029F00000F06CFCBDF856100646C8BA00F0F2FDB7
:102A000000222B4600F094FC00F060FCBDF858104A
:102A10000F90C8BA00F0E6FD00222B4600F088FCBB
:102A200000F054FC0C9048462821FDF774FC404609
:102A300000F0EEFECDE90D10204600F0E9FECDE9F4
:102A40000A10384600F0E4FE074630464C468946F8
:102A500000F0DEFE83460F98884600F0D9FE564609
:102A600082460C980D4600F0D3FECDE908010B9884
:102A700001A900900A98DDE90D3281E88102204623
:102A80000DA1A146CDF810B04FF0FF3BCDE9058A6E
:102A9000B2460795FDF7A4FB40F2C400C2F2000065
:102AA000214628224FF0FF33FFF76EF94FF4FA70FA
:102AB000FEF702F838E700BF252E326620252E32B9
:102AC0006620252E326620252E326620252E32667F
:102AD00020252E32660D0A005FEA400C08BF91F0F7
:102AE000000F4FEA8C234FEAC12243EA51514FEACB
:102AF0001C5018BF00F5F0404FEA300018BF41F0FD
:102B000000415FEA6C5C00F02980BCF1FF3F08BF28
:102B100040F080407047130C06BF12044FF0100CB9
:102B20004FF0000C130E04BF12020CF1080C130F2F
:102B300004BF12010CF1040C930F04BF92000CF1BE
:102B4000020CD30F04BF52000CF1010C11464FF0E0
:102B50000002A0F11F00A0EB0C00704711F0004F25
:102B600008BF704731F000413FF4D5AF0B0C06BFF2
:102B700009044FF0100C4FF0000C0B0E04BF0902BB
:102B80000CF1080C0B0F04BF09010CF1040C8B0FA6
:102B900004BF89000CF1020CCB0F04BF49000CF1FB
:102BA000010CCCF1200322FA03F341EA030102FAFB
:102BB0000CF2A0EB0C0000F10100704723F07F47FE
:102BC00020F07F4C80EA030000F00040ACEB0703EC
:102BD00003F57C5303F1FF032DE9804909B44FEA63
:102BE000144324EA03484FEA154B25EA0B4E0FF233
:102BF000042606EB13273E7803FB0667C7F500079C
:102C000007FB06F64FEAD64606F102064FEA5437AE
:102C100007FB066CCCF1005C4FEA1C472CEA074C22
:102C20000CFB06F507FB06F404EB15464FEA961677
:102C300049085FEA320234BF00204FF000404FEAFB
:102C4000D13706FB07FC4FEA1C4C0CFB0BF7D21BE1
:102C500003FB0CF761EB07010CFB0EF7B0EB074031
:102C600072EB17420CFB08F734BFA2EB0742B2EB42
:102C7000074261EB17414FEA0C444FEA910706FB0C
:102C800007FC4FEA1C4C0CFB0BF7B0EBC74072EB98
:102C9000573203FB0CF734BFA2EBC742B2EBC7427B
:102CA00061EB57310CFB0EF7B0EBC70072EB5772BC
:102CB0000CFB08F734BFA2EBC702B2EBC70261EB13
:102CC00057714FEA816141EA92114FEA826242EA0A
:102CD00090124FEA806004EBCC04039F4FEAD13797
:102CE00006FB07FC4FEA1C4C0CFB0BF7D21B03FB4B
:102CF0000CF761EB07010CFB0EF7B0EB074072EB32
:102D000017420CFB08F734BFA2EB0742B2EB0742B5
:102D100061EB17414FEA8C5504EB9C244FEA910775
:102D200006FB07FC4FEA1C4C0CFB0BF7B0EBC74053
:102D300072EB573203FB0CF734BFA2EBC742B2EB86
:102D4000C74261EB57310CFB0EF7B0EBC70072EBDB
:102D500057720CFB08F734BFA2EBC702B2EBC702F5
:102D600061EB57714FEA816141EA92114FEA826249
:102D700042EA90124FEA806015EB4C2544F10004C2
:102D80004FEAD13706FB07FC4FEA1C4C0CFB0BF754
:102D9000D21B03FB0CF761EB07010CFB0EF7B0EB4A
:102DA000074072EB17420CFB08F734BFA2EB074257
:102DB000B2EB074261EB17414FEA813141EA9241A0
:102DC0004FEA823242EA90424FEA80304FEA0C7674
:102DD00015EB1C1544F1000448EA03434EEA0B4886
:102DE0004FF0000EB2EB080C71EB030724BF6246F4
:102DF00039464EEB0E0E4FF0000B00185241494180
:102E00004BEB0B0BB2EB080C71EB03077BF1000BE8
:102E100024BF624639464EEB0E0E4FF0000B0018F1
:102E2000524149414BEB0B0BB2EB080C71EB030722
:102E30007BF1000B24BF624639464EEB0E0E51EA81
:102E4000020718BF46F0010616EB0E7655F1000298
:102E500054F1000103D5BDE88901BDE80088BDE853
:102E60008901BDE80048B619524141EB0101A3F1C7
:102E70000103704780807F7E7D7C7B7A79787776CE
:102E800076757473727171706F6E6E6D6C6C6B6A47
:102E90006A696868676666656464636362616160E5
:102EA000605F5F5E5E5D5D5C5C5B5B5A5A59595862
:102EB00058575756565555555454535352525251CC
:102EC000515050504F4F4F4E4E4D4D4D4C4C4C4B22
:102ED0004B4B4A4A4A494949484848474747474669
:102EE00046464545454444444443434343424242A5
:102EF000424141419C46002B30D477002BD04FEA11
:102F000037071CB503B44FF010004FF01001BAF1B1
:102F1000000F06D0BCF1000FDCBF40F0080040F00D
:102F200008014FF000000FBCBDE810400BF1010B91
:102F3000BBF1010F08BF5FEA170722BF12F10102C0
:102F400011F101014FF0004143F1000300F0004096
:102F500043EA00007047F9D35708D0E746EA06462F
:102F60004FEA164613F1400F1FDD13F1200FDFBFAC
:102F700016430A46002120335B42BED0C3F120072E
:102F800046EA06464FEA164602FA07F746EA0706F9
:102F900022FA03F2C3F1200701FA07F742EA070217
:102FA00021FA03F14FF00003A7E746EA020646EADA
:102FB00006464FEA164646EA0106BCBF46EA064602
:102FC000360C4FF000034FF000024FF0000194E781
:102FD0002DE9804C70B49A46934691E8380007C8B2
:102FE00031EA400C48BF34EA430C03D5FFF7E6FD55
:102FF000FFF780FFF0BCBDE8008C2DE9804C70B479
:103000009A46934691E8380007C810F0804F08BFF1
:1030100013F0804F03D100F005F8FFF76BFFF0BC11
:10302000BDE8008C20F07F4723F07F4C80EA03004E
:1030300000F0004007EB0C03A3F57C53A3F1FE0363
:1030400092F0000F00F0B38095F0000F00F0778051
:103050002DE901494FEA114021EA00484FEA1446A0
:1030600024EA064700FB06FC08FB06F607FB08F807
:1030700018EB06484CEB164C00FB07F718EB07481B
:103080004CEB17404FEA124B22EA0B4E4FEA154623
:1030900025EA06470BFB06FC0EFB06F607FB0EFEB9
:1030A0001EEB064E4CEB164C0BFB07F71EEB074EC8
:1030B0004CEB174B18EB0B0840F1000018EB0E0B14
:1030C00058EB000840F100008F1A4FF000014FF05C
:1030D00000063CBFC943661B14BFB5EB040C0021BE
:1030E0003CBFC943F61B4FEA174427EA04454FEAA1
:1030F0001C472CEA074C04FB076205FB07F70CFB97
:1031000005F616EB074642EB174204FB0CFC16EBE8
:103110000C4642EB1C421BEB060658EB02024141F7
:103120004EEA8E0E46EA9E0601D5BDE80189B61923
:10313000524141EB0101A3F10103BDE801894FEACE
:10314000144524EA05464FEA114721EA074C05FBDE
:1031500007F406FB07F70CFB06F111EB074144EB04
:10316000174405FB0CFC11EB0C4144EB1C444FEAEB
:10317000124722EA074C05FB07F206FB07F70CFB98
:1031800006F616EB074642EB174205FB0CFC16EB66
:103190000C4642EB1C456A1854F1000148BF7047C9
:1031A000B619524141EB0101A3F10103704795F0BB
:1031B000000F37D04FEA114221EA02464FEA144786
:1031C00024EA074C02FB07F106FB07F70CFB06F4A9
:1031D00014EB074441EB174102FB0CFC14EB0C44CD
:1031E00041EB1C414FEA154725EA074C02FB07F566
:1031F00006FB07F70CFB06F616EB074645EB1745F3
:1032000002FB0CFC16EB0C4645EB1C42121951F16B
:10321000000148BF7047B619524141EB0101A3F1CB
:10322000010370474FEA144524EA05464FEA114767
:1032300021EA074C05FB07F106FB07F70CFB06F23A
:1032400012EB074241EB174105FB0CFC12EB0C4261
:1032500051EB1C414FF0000648BF7047921841EBFC
:103260000101A3F101037047490050EAC12018BFD2
:1032700004204A0D18BF40F0010040F2FF72B2EB8B
:10328000515F08BF40F00200012808BF05207047C9
:1032900030380A2801D20120704700207047000012
:1032A00010B500290AD00878002807D005487844CE
:1032B000FDF7B6FB002801D0002010BD024878447D
:1032C00010BD0000320700002A07000021F0004274
:1032D00001F00043A2F16052B2F5801F28BFD2F185
:1032E0007F6C0BD95FEA001C43EAC20242EB5070CC
:1032F00018BF704728BF20F001007047B2F5801F4B
:10330000BCBF184670474FEA410C1CF5001F02D2A3
:10331000084600F0EEBA70B500F026FA0000008909
:10332000FFF7F6BF4FF00040A0F5800070470000A7
:103330002DE9C04130B4DFF8A4C23CEA111418BF33
:103340003CEA131400F0ED801CEA111481EA030535
:1033500044EAD57418BF1CEA131500F0C880A4EB2A
:10336000050404F17F7404F500344FF0004545EA8C
:10337000C12145EAC32341EA505143EA52534FEA7F
:10338000C0204FEAC222994208BF904200F09D80BF
:103390004FEA13650FF24416765D4FEA134506FBBC
:1033A00005F7C7F1807706FB07F74FEAD737A7FB8A
:1033B00003687642A7FB06CEC8F5803838BFA8F16F
:1033C000010807FB08E6A6FB028C4FF0000EE6FBA7
:1033D00003CEDCF1000CCEF1004E38BFAEF1010E91
:1033E000A6FB0C584FF00007E6FB0E87A1FB08C6B2
:1033F000A0FB07CE16EB0E064FF0000545F10005C9
:10340000E1FB076515F1E04E7EBFA4F580345FEA6D
:1034100046066D4116F1800745F100054FEA172772
:1034200047EA05674FEA15254FEA0666A6F1DE462C
:10343000B6F1805F20D9384605EBC47124F0010C49
:1034400001EB0C11BCF1FE6F02D8F0BCBDE80081AD
:1034500024425CBF01F5801E9EEAC47F02D4F0BC0A
:10346000BDE80081244200F13980A1F1C041F0BCE7
:10347000BDE8004100F0C6B94FEAD02040EA415013
:103480004FEAD1214FEAD22242EA43524FEAD323F4
:10349000A7FB028607FB036605FB02661EEA0E0F0A
:1034A00058BFA6EB0056B6EB00564FEA520E4EEA56
:1034B000C37E18EB0E0E56EB530EBCD518EB02086C
:1034C0005E417F1C55F10005B5E74FF480154FF0C4
:1034D00000074FF000064FF00008ACE701F1C041D3
:1034E00001F000414FF00000F0BCBDE800810CEAA3
:1034F000131511EA0C1F00D00CE013EA0C1F00F0AA
:1035000026804FF0000081EA030101F00041F0BC89
:10351000BDE80081F0BCBDE8004181EA030100F094
:1035200071B9F0BCBDE8004170B500F01DF900BFF5
:10353000097EFC3E00F007B84FF0000081EA03016D
:1035400001F00041704781EA030100F05BB9F0BC73
:10355000BDE8004122494FF000007047FFFDFBF934
:10356000F7F5F4F2F0EEEDEBE9E8E6E4E3E1E0DEB6
:10357000DDDBDAD8D7D5D4D3D1D0CFCDCCCBCAC828
:10358000C7C6C5C4C2C1C0BFBEBDBCBBBAB9B8B74F
:10359000B6B5B4B3B2B1B0AFAEADACABAAA9A8A842
:1035A000A7A6A5A4A3A3A2A1A09F9F9E9D9C9C9B10
:1035B0009A999998979796959594939392919190BB
:1035C0008F8F8E8E8D8C8C8B8B8A8989888887874C
:1035D0008685858484838382828181800000FF07C1
:1035E0000000F87F10F0004248BF4042B0FA80F37C
:1035F00010FA03F10AD0C3F11D0303F5806302EB57
:1036000003524FEA415002EBD12170474FF00000C6
:103610007047000070B5DFF848C11CEA111E1EBFDC
:103620001CEA13159EEA0C0F95EA0C0F00F06F8050
:1036300081EA03044EEAD47EAE4421EA4C1123EA27
:103640004C1341F4801143F48013AEF17F7EA1FB53
:10365000024CA0FB0365361955EB0C05A1FB034C8E
:103660004CF10003A0FB021C16EB0C06654153F164
:103670000003094218BF46F0010613F4007F0BD186
:103680004FEA03314FEA053041EA155140EA16503E
:1036900034036FF003020AE04FEAC3214FEAC5206A
:1036A00041EA555140EA5650F4026FF0020202EB33
:1036B0002E4201EB025585EACE710AD05FEA440C36
:1036C00018BF24F0004450F1000041F1000120EA4D
:1036D000D47040F2FE7C624500D270BDA84214BF97
:1036E0004FF080444FF04044002E08BF0024BEF14C
:1036F000806FA8BFA1F1C041BDE8704080F2828018
:1037000001F1C04101F000414FF0000070470CEAA8
:1037100013159EEA0C0F18BF95EA0C0F06D081EA2C
:10372000030E4FF000000EF0004170BD00F01CF8D9
:103730008900013E00F007B800F009B84FEA430CD9
:103740005FEA5C5C08D081EA030100F05BB84FEAF5
:10375000410C5FEA5C5CF6D102494FF00000704713
:103760000000FF070000F87F0EF1020E2EF0030E9E
:103770005EF8046B364205D4012A43EB030515F5C8
:10378000001F12D8012841EB010C1CF5001F0CD8BA
:103790000ED14FEAD17C0CEB4C0C0CF1020C15F560
:1037A000001F08BF4CEBD37C04E04FF0080C01E095
:1037B0004FEAD37C0CEB4C0526FA05F606F007061B
:1037C000B6F1040C06D20EEB860CBDE870404CF04E
:1037D000010C6047DFE80CF0090B02024FF00041DA
:1037E000A1F500214FF0000070BD194610460128D8
:1037F00051EB010418BFD4F5001484BF002001F080
:10380000004170BD0808A0F500114FEA3101704772
:1038100043004FEAD30C4FEA3C0C43401FBF400724
:103820000CF1605113F0FE4F70471CF0006F03D194
:103830000CF00041002070470CF0004343EA507048
:1038400040EACC0010B500F00EF800BF0000009276
:103850004FEA0001FFF7D6BF4FF00041A1F500216C
:103860004FF0000070470EF1020E2EF0030E5EF8CE
:10387000044B244204D44FEA4102B2F17F4F11D8E5
:103880004FEA4003B3F17F4F0CD80ED14FEAD07C02
:103890000CEB4C0C0CF1020CB2F17F4F08BF4CEB5F
:1038A000D17C04E04FF0080C01E04FEAD17C0CEB36
:1038B0004C0324FA03F404F00704B4F1040C06D218
:1038C0000EEB840CBDE810404CF0010C6047DFE8C3
:1038D0000CF0070802024FF00040A0F5800010BD78
:1038E0000846420018BFD2F1807288BF00F0004045
:1038F00010BDFF2141EAD050C0057047FCF70DBE56
:1039000002400000000000A0000000000540000090
:10391000000000C8000000000C4000000000409CB7
:1039200000000000194000000020BCBE00000000A4
:1039300034400000BFC91B8E00000004B5400000E9
:10394000504BCFD06607E2CF010000006C41000071
:103950003E8251AADFEEA73401000000D9420000E8
:10396000DCB5A0E23A301F97FFFFFFFFB44500002F
:10397000FD25A0C8E9A3C14FFFFFFFFFFF3F0000E7
:103980000000008000000000FF3F000000000080F9
:103990000000000001020000000000000000010221
:1039A00003040607080900000000010203040203E3
:1039B0000405060708090A0B0C0D0E0F1010000075
:1039C000003A000800000020100000002801000854
:1039D000103A000810000020000700004401000811
:1039E0001C00000043000000F8FFFFFF0C00000077
:1039F0000E0000000F0000002E000000000000007C
:103A000001000000100000000024F400D0000000BD
:04000005080000ED02
:00000001FF
